:10800000F07F0020F90301002BEE0000BFF6000016
:108010000000000000000000000000000000000060
:1080200000000000000000000000000013E7000056
:10803000000000000000000013E70000CD17010061
:1080400013E7000013E7000013E7000013E7000048
:10805000B103010013E7000013E700008D170100D2
:1080600013E7000011AD0000ADC5000049B10000EC
:1080700095BA000013E700002DAF000013E70000E1
:1080800013E7000013E70000E10F010005100100F5
:1080900013E70000000000000000000013E70000EC
:1080A00013E7000013E7000013E7000013E70000E8
:1080B000F8B5C046F8BC08BC9E4670479103010065
:1080C000F8B5C046F8BC08BC9E467047690301007D
:1080D000243D000001000000484B00201C0000006F
:1080E00000000000503E00203401000000000000AD
:1080F000C0480020400000000000000000490020AF
:108100004000000000000000804A00203000000015
:10811000000000008C47002050000000010000001B
:10812000B90D0100311701009D1701005D18010014
:108130006B18010043170100A51201002DEE00008D
:1081400099BF0000B9C200000DD6000089CF000021
:10815000250B0100210F0100E1A00000C5E7000090
:1081600009E90000AD170100B7C2000000000000DF
:1081700070400020C000000000000000B04A002055
:108180002C000000000000002B4700200100000030
:1081900000000000DC4A00202C000000000000006D
:1081A000F442002080000000000000007443002022
:1081B0008000000000000000404900204000000056
:1081C00000000000F44300208000000000000000D8
:1081D000744400208000000000000000804900205E
:1081E0004000000000000000F44400208000000077
:1081F0000000000074450020800000000000000026
:10820000C04900204000000000000000704B00202A
:108210000800000000000000784B0020080000006B
:1082200000000000843F0020EC000000000000007F
:10823000F44500206C000000000000007C48002095
:108240004400000000000000644B00200A00000011
:1082500000000000C04B00200200000000000000F1
:10826000884B00200400000000000000804B00202C
:1082700008000000000000008C4B002004000000FB
:1082800001000000FFFFFFFF503800200002000047
:1082900000000000904B00200400000000000000DF
:1082A000944B00200400000000000000004A002061
:1082B0004000000000000000503A002000020000D2
:1082C00000000000503C0020000200000000000000
:1082D00030410020B800000000000000084B0020E2
:1082E000200000000000000000000020A00F00009F
:1082F00000000000984B0020040000000000000077
:10830000704200208400000000000000404A00206D
:108310004000000000000000A00F0020800C0000C2
:1083200000000000201C0020D0070000000000001A
:108330009C4B00200400000000000000F0230020FF
:10834000D007000000000000604600206C00000024
:10835000000000008A47002001000000000000002B
:108360008B47002001000000000000006E4B002041
:108370000100000000000000C02B0020D00700001A
:1083800000000000E841002088000000000000001C
:1083900090330020C004000001000000950A010095
:1083A000950A0100950A0100950A0100950A01004D
:1083B000950A0100950A0100950A0100950A01003D
:1083C000950A0100950A0100950A0100950A01002D
:1083D000950A0100950A0100950A0100950A01001D
:1083E000950A0100950A0100C518010095100100C9
:1083F000C5180100C5180100C5180100C518010005
:10840000C5180100C5180100C5180100C5180100F4
:10841000C5180100C5180100C5180100C5180100E4
:10842000C5180100C5180100C5180100C5180100D4
:10843000C5180100C5180100B9100100C5180100D8
:10844000C5180100C5180100C5180100C5180100B4
:10845000C5180100C5180100C5180100C5180100A4
:10846000C5180100C5180100C5180100C518010094
:10847000C5180100C5180100C5180100C518010084
:10848000C5180100C5180100DD100100C518010064
:10849000C5180100C5180100C5180100C518010064
:1084A000C5180100C5180100C5180100C518010054
:1084B000C5180100C5180100C5180100C518010044
:1084C000C5180100C5180100C5180100C518010034
:1084D000C5180100C5180100011101002511010096
:1084E00049110100C5180100C5180100C518010097
:1084F000C5180100C5180100C5180100C518010004
:10850000C5180100C5180100C5180100C5180100F3
:10851000C5180100C5180100C5180100C5180100E3
:10852000C5180100C5180100C5180100C5180100D3
:108530008D0C0100C5180100C5180100C518010007
:10854000C5180100C5180100C5180100C5180100B3
:10855000C5180100C5180100C5180100C5180100A3
:10856000C5180100C5180100C5180100C518010093
:10857000C5180100C5180100C5180100C913010084
:10858000C5180100C5180100C5180100C518010073
:10859000C5180100C5180100C5180100C518010063
:1085A000C5180100C5180100C5180100C518010053
:1085B000C5180100C5180100C5180100C518010043
:1085C000C5180100C518010029090100C5180100DE
:1085D000C5180100C5180100C5180100C518010023
:1085E000C5180100C5180100C5180100C518010013
:1085F000C5180100C5180100C5180100C518010003
:10860000C5180100C5180100C5180100C5180100F2
:10861000C5180100C518010001140100C5180100AA
:108620001D140100C518010039140100C51801000E
:10863000C5180100C5180100C5180100C5180100C2
:10864000C5180100C5180100C5180100C5180100B2
:10865000C5180100C5180100C5180100C5180100A2
:10866000C5180100C51801006D110100C5180100F1
:1086700091110100C5180100C9090100C5180100C8
:10868000C5180100C5180100C5180100C518010072
:10869000C5180100C5180100C5180100C518010062
:1086A000C5180100C5180100C5180100C518010052
:1086B000C518010089020100C518010089020100E6
:1086C000C518010089020100C5180100C518010084
:1086D000C5180100C5180100C5180100C518010022
:1086E000C5180100C5180100C5180100C518010012
:1086F000C5180100C5180100C5180100C518010002
:10870000C5180100C5180100C5180100C5180100F1
:10871000C5180100C5180100C5180100C5180100E1
:10872000C5180100C5180100C5180100C5180100D1
:10873000C5180100C5180100C5180100C5180100C1
:10874000C5180100C5180100C5180100C5180100B1
:10875000C5180100C5180100C5180100C5180100A1
:10876000C1150100C5180100C5180100C518010098
:10877000C5180100C5180100C5180100C518010081
:10878000C5180100C5180100C5180100C518010071
:10879000C5180100C5180100C5180100C518010061
:1087A000C5180100C5180100C5180100C518010051
:1087B000C5180100C5180100C5180100C518010041
:1087C000C5180100C5180100C5180100C518010031
:1087D000C5180100C5180100C5180100C518010021
:1087E000C5180100C5180100C5180100C518010011
:1087F000C5180100C5180100C5180100C518010001
:10880000C5180100C5180100C5180100C5180100F0
:10881000C5180100C5180100C5180100C5180100E0
:10882000C5180100C5180100C5180100C5180100D0
:10883000C5180100C5180100C5180100C5180100C0
:10884000C5180100A9150100C5180100C5180100CF
:10885000C5180100C5180100C5180100284B0020EB
:1088600020000000010000005665722030302E31DB
:1088700030200000000000000000000000000000A8
:108880000000000000000000CC4600205F00000057
:10889000010000000D0A4C3A4C4544207465737485
:1088A000200909090920200D0A493A4750494F2853
:1088B000696E2920200909090920200D0A4F3A472D
:1088C00050494F286F757429200909090920200D86
:1088D0000A4D3A4D4154636F7265546573742009B3
:1088E00009090920200D0A463A466C6173685465EF
:1088F000737400002C4700205E000000010000009F
:10890000504F5354202F20485454502F312E310DA6
:108910000A486F73743A6265616D2E736F7261639A
:108920006F6D2E696F0D0A436F6E74656E742D54F2
:108930007970653A6170706C69636174696F6E2FEC
:108940006A736F6E0D0A436F6E74656E742D4C659D
:108950006E6774683A202020200D0A0D0A0000007E
:108960006F4B00200100000001000000010000002A
:10897000A04B00200400000000000000A44B0020D9
:108980000400000000000000A84B002004000000CC
:1089900000000000AC4B00200400000000000000BC
:1089A000DC4700205000000000000000B04B002019
:1089B0000400000000000000B44B00200400000090
:1089C000000000002C4800205000000000000000C3
:1089D000B84B00200400000000000000BC4B002049
:1089E0000400000000000000000000000000000083
:1089F00022222222222222228179536C65657081F3
:108A00007A0D0A004154245645520D004154244920
:108A10004D45490D00000000415424534554415038
:108A20004E2C736F7261636F6D2E696F2C736F7252
:108A3000612C736F72612C5041500D0041542453CE
:108A400045545345525645522C6265616D2E736FE5
:108A50007261636F6D2E696F2C383838380D0000E5
:108A6000415424434F4E4E4543540D00415424433A
:108A70004F4E4E4543543F0D0000000041542454D6
:108A8000494D450D00000000415424525352500DF1
:108A9000415424525352510D415424525353490DC1
:108AA00041542453494E520D000000004154244FBC
:108AB00050454E0D000000004552524F520D00002F
:108AC0004D4154434F52452052454144590D0000F9
:108AD000245645523A000000244E554D3A000000FD
:108AE00024494D45493A00000D4F4B0D0000000050
:108AF0004F4B0D0024434F4E4E4543543A310D0029
:108B00002454494D453A32002453494E523A00000C
:108B10002457414B450D0000244F50454E0D000099
:108B200024524543560D0000415424524543562CCF
:108B3000313032340D00000024434C4F53450D00BA
:108B400024534C4545500D0024524543564441544E
:108B5000413A0000220D000081790000817A0D0A5F
:108B6000000000002121444F574E4C4F41444649DC
:108B7000524D0D000D0A4F4B0D0A00002121444FAC
:108B8000574E4C4F4144424F4F540D002121564502
:108B90005253494F4E0D0000212152455345540D6B
:108BA0000000000041540000908588B300000000E0
:108BB00097AC97CA000000006D5E332F686F757226
:108BC0000000000034343031303332353634393738
:108BD0003835390038313230303130303334303498
:108BE0003238360030312E3034000000323032322C
:108BF0002D30372D30352031303A31363A30300093
:108C000041756720313020323032320020000000C0
:108C100031333A32333A3238000000007B22436F5E
:108C20006E666967223A7B00224C6F6767657253F4
:108C3000657269616C4E6F223A25642C0000000059
:108C400022496E74657276616C223A25642C0000AC
:108C500022526570726F74496E74657276616C220F
:108C60003A25642C0000000022496E74657276611A
:108C70006C416C657274223A25642C002252657036
:108C8000726F74496E74657276616C416C65727452
:108C9000223A25642C0000002253656C6563745FE2
:108CA000636831223A25642C000000002255707060
:108CB0006572305F636831223A25642C0000000041
:108CC000224C6F776572305F636831223A25642CDD
:108CD0000000000022416C65727453775F55325F6B
:108CE000636831223A25642C000000002255707020
:108CF0006572325F636831223A25662C00000000FD
:108D000022416C65727453775F55315F636831221D
:108D10003A25642C00000000225570706572315FA6
:108D2000636831223A25662C0000000022416C6500
:108D3000727453775F4C315F636831223A25642C3B
:108D400000000000224C6F776572315F636831224A
:108D50003A25662C00000000226C65727453775F20
:108D60004C32315F636831223A25642C00000000E8
:108D700022416C65727453775F4C325F63683122B5
:108D80003A25642C00000000224C6F776572325F38
:108D9000636831223A25662C000000002265617369
:108DA0007572655F636831223A222573222C0000B8
:108DB0002265614B696E645F636831223A222573D4
:108DC000222C00002243686174746572696E675FCB
:108DD000636831223A25642C000000002253656C40
:108DE0006563745F636832223A25642C00000000DA
:108DF000225570706572305F636832223A25642CA8
:108E000000000000224C6F776572305F6368322289
:108E10003A25642C0000000022416C65727453777F
:108E20005F55325F636832223A25642C00000000EF
:108E3000225570706572325F636832223A25642C65
:108E40000000000022416C65727453775F55315FFA
:108E5000636832223A25642C0000000022557070AD
:108E60006572315F636832223A25642C000000008D
:108E700022416C65727453775F4C315F63683222B4
:108E80003A25642C00000000224C6F776572315F38
:108E9000636832223A25642C0000000022416C6590
:108EA000727453775F4C325F636832223A25642CC8
:108EB00000000000224C6F776572325F63683222D7
:108EC0003A25642C00000000224D656173757265BF
:108ED0005F636832223A222573222C00224D65619D
:108EE0004B696E645F636832223A222573222C003C
:108EF0002243686174746572696E675F63683222C9
:108F00003A2564007D7D00004C656E6774683A20E8
:108F1000202020002564000041542453454E442C59
:108F200022000000525352503A0000005253525156
:108F30003A000000525353493A00000053494E5240
:108F40003A0000007B22537461747573223A7B00EF
:108F500022494D4549223A25732C0000224D5349A0
:108F600053444E223A25732C0000000022566572AD
:108F700073696F6E223A25732C000000224C544511
:108F800056657273696F6E223A25732C00000000DB
:108F90002245787443656C6C50777231223A2566AD
:108FA0002C0000002245787443656C6C5077723257
:108FB000223A25662C0000002242617474315573F8
:108FC00065223A25642C0000224261747432557384
:108FD00065223A25642C00002252535250223A2531
:108FE000642C00002252535251223A25642C000076
:108FF0002252535349223A25642C00002253494EF1
:1090000052223A25642C00002254656D70223A25C4
:10901000662C000022547854797065223A25660047
:109020007B225265706F7274223A7B002254696D04
:1090300065223A25732C00002256616C75655F63CA
:109040006831223A25662C002256616C75655F6393
:109050006832223A25662C0022416C657274223AED
:10906000256325632C0000004C6E3D0020526D3DB1
:1090700000000000666F726D617420657272340DBD
:109080000A000000666F726D617420657272310DA6
:109090000A000000526563765265743D00000000CE
:1090A0000D0A436F72653E004154245345544150AC
:1090B0004E2C736F7261636F6D2E696F2C736F72BC
:1090C000612C736F72612C434841500D0000000009
:1090D000554152543C3D3E4D4154636F7265204DA5
:1090E0004F4445210D0A0000415424444953434F45
:1090F0004E4E4543540D0000415424434C4F5345BC
:109100000D0000004D73673D000000004154244EE7
:10911000554D0D00415424525352500D0000000093
:10912000415424525352510D000000004154245226
:109130005353490D0000000041542453494E520D31
:1091400000000000415424534554534552564552A3
:109150002C6B61727567616D6F736F66742E6464DA
:109160006F2E6A702C393939390D000053746174CF
:109170003D0000006964783D000000004C6F674FBF
:109180006E0D0A004C6F674F66660D0A0000000006
:109190000D0A444C433E00005265616420494F284B
:1091A000312D37293D3E00004C454428312D3329CF
:1091B0003D3E0000313A4F6E20323A4F6666203312
:1091C0003A426C696E6B3D3E000000000D0A4E7520
:1091D0006D3D3E00416464726573733D3078383094
:1091E000303020457261736564210D0A0000C0466D
:1091F000F0B5DE4657464E464546E0B585B005001B
:109200004378002B00D100E3836B002B00D1FCE2FC
:10921000446AA38B9B0505D5238B9B0502D5802330
:109220009B00A383A38BDB0505D5238BDB0502D530
:1092300080235B00A383A38B1B0604D5238B1B0613
:1092400001D58023A383A38B5B0604D5238B5B0608
:1092500001D54023A383A38B9B0604D5238B9B06B8
:1092600001D52023A383A38BDB070DD5238BDB073D
:109270000AD50123A383A3820F33A3832383002270
:109280000421686BAB6B9847A38BDB060DD5238B52
:10929000DB060AD51023A383A3820F3BA38323837A
:1092A00000220321686BAB6B9847A38B5B0709D542
:1092B000238B5B0706D50423A38300220721686B59
:1092C000AB6B9847A38B1B0702D5238B1B0735D4A9
:1092D0000823FF33E35CDB065DD50A23FF33E35C41
:1092E000DB0658D56E6CF37902229343F371F37B5E
:1092F0009343F3733768002F47D0296D06323868DF
:1093000008F031FA0823FF331022E254033B3032D5
:10931000E2543A689179D3791B020B432AD1213365
:109320000722EA5402233B7206337B60BB69336039
:10933000FB68002B2FD0380098472CE02123002217
:10934000EA54237B1B079B0F984AD25C3023EA54D4
:10935000280050306022002108F068FAAB6B002B27
:1093600003D000220221686B98478023A372783BC8
:10937000A383ADE713787F2B03D821230222EA547D
:10938000D0E721230622EA54CCE721230122EA5424
:10939000E7330F32E2540823FF33E35C9B0737D5F2
:1093A0000A23FF33E35C9B0732D56B6C9E68002E6B
:1093B0002ED02122AA5C082A1AD0316A002971D144
:1093C000327C51B200295DDB21220521A954002203
:1093D0003272B2699A60F368002B01D0300098476E
:1093E0000823FF330222E254033B3E32E2540FE0F3
:1093F000002221216A543272B16999607260F36867
:10940000002B01D0300098470823FF330222E2549A
:109410000823FF33E35CDB0700D4A3E00A23FF3318
:10942000E35CDB0700D49DE06B6C98462123EB5C8A
:10943000052B59D043461E68002E74D06F6DBF04B3
:10944000BF0C306A73683A189A4201D91F1ABFB22A
:10945000296D33689C4660443A0008F084F9336A09
:10946000FB1833627268934264D241468988B942DC
:1094700060D882235B004022E2540823FF333F3A46
:10948000E2546FE07F231A4032746B6E9B0B9B0398
:109490006B660823FF330222E2540623FF337E3239
:1094A000E254B5E79F89B94200D88FB2286E73683D
:1094B000591A33689C4661443A0008F054F9336AFB
:1094C000DB1B33626B6E9B0B9B036B666B6EBF0487
:1094D000BF0C1F436F660823FF330222E2540623AA
:1094E000FF337E32E25493E743461868002813D0D6
:1094F000002303722122AB540822FF320121A15420
:10950000033A3F31A1544246816911604360C36808
:10951000002B27D0984725E021230422EA54E73383
:10952000033AE2541EE021230322EA54E733023ACD
:10953000E25417E093429B415B423372212307229E
:10954000EA540823FF33063AE254033B3F32E25425
:109550004346B2691A60336A7360F368002B01D026
:1095600030009847012601239B460827FF37073321
:109570009A4649E07F22134003744346EA18536E2B
:109580009B0B9B0353660A234A46D3550623FF339E
:1095900080224946CA5434E0009B5B01E31809333A
:1095A000FF330A321A704B46DA552AE004190100DB
:1095B000019B9B89994200D88BB24268511A02687C
:1095C000944661444246AA181166016AC91A0162AA
:1095D000516E890B89035166516E9B049B0C0B43A2
:1095E00053660A234A46D355009B5B01E3180A33AE
:1095F000FF331A00022313700623FF3380224946EB
:10960000CA540136032E73D0238C9BB2009633418B
:1096100059461942F5D07301E3180A33FF331B781A
:10962000DBB2039373019846A146C1444B46DB5D10
:10963000DBB20293029B5146194212D0039B19429E
:109640000FD04346EB186A331B789B0709D5434676
:10965000EB186A331A7802218A431A704B46524635
:10966000DA55029B9B07CCD5039B9B07C9D52B00E2
:109670004433B2009B58019398680028C1D0016A16
:10968000002995D1037C5AB2002A00DA72E7002340
:109690000372019B82699A60C368002B00D09847CF
:1096A000019B9A68002A00D176E7106A019B9B898A
:1096B000984200D883B25168081A11688C466044F9
:1096C000414669180866106AC01A10624A6E920B09
:1096D00092034A664A6E9B049B0C13434B660A2313
:1096E0004A46D3550623FF3380224946CA5488E7A9
:1096F000023E012399460823FF339A4621E00023C6
:1097000003725B4682691A60036A4360C368002B78
:1097100000D098475B461B68002B6CD01A687F010D
:10972000EB191A650523424651465354E7190A3787
:10973000FF373B70FF3340224146CA540136032EA7
:1097400063D0238C9BB2370033414A461A42F5D08E
:109750007301E3180A33FF331B78DBB20393730101
:109760009846A044434652469B5CDBB20293029B60
:1097700004221A4210D07301EB185A331B789B074E
:1097800006D57301EB185A331A7802218A431A70EE
:109790004346524604219954029B4A461A42CDD070
:1097A000039B1A42CAD02B004433B2009B589B46FD
:1097B00018680028C2D07B01EB185B6D9B049B0CE2
:1097C000026A9A18026241688A4298D25946898888
:1097D00099420DD803689A187F01EF193A6505235D
:1097E000424651465354FF3340224146CA54A5E7EE
:1097F0004B46037285E77F01E7190937FF370522DA
:109800003A70434651465A5498E705B03CBC9046DE
:109810009946A246AB46F0BDF0B599B011930B68DE
:10982000139009934B680D9105938B680A930B690C
:109830001693CB68039313680893536808980793AB
:1098400000220023079906F009FF00280BD1099B8D
:109850005B073BD40823099A1A400A9B0B92049396
:109860000FD0202306E0802212069446079B634413
:1098700007932D23039A13700A9B013B0493012342
:109880000B930B99079B8C46039A089962445B00E3
:1098900010925B08C04A00291AD1934218D1119B3B
:1098A000BE4C413B2100192B00D9211D109808F016
:1098B0000FF8201D07F0C2FF099B020000930399D7
:1098C0000A9B139805F06EFD19B0F0BD2B23D1E76C
:1098D000934203D811D1089B002B0ED0119BAF4CA3
:1098E000413B2100192B06D80831109807F0F0FFF2
:1098F00020000C30DEE70C31F7E700220023089847
:10990000079907F0DFF80026A54F002833D0002381
:109910000293119807F0B7FFC3B20C93059B002B7D
:1099200000DACAE10C9B0693672B00D045E1059B4A
:10993000002B00D1BCE1029B043304DB029B059A9F
:10994000934200DA34E165234DE126002F00029BAB
:10995000013302930022934B3000390002F002FCE5
:10996000089A079B04000D0006F058FE0028ECD072
:109970000024012524E00290ECE7029B1A008A4BA8
:109980009A4212DA002C10D10022884B08980799CD
:1099900002F0E8FB00220890079130003900834B69
:1099A00002F0E0FB2C0006000F007E4B3000390077
:1099B000002204F0CBFB06000F00029B013B029348
:1099C00032003B000898079906F048FE0028D4D1E1
:1099D0009FE732003B0008980E9904F0B7FB04F0B3
:1099E000E5FD1490159107F009F81022099B13402A
:1099F000034300D090E00C9B672B00D08CE0002C40
:109A000000DB9AE001358020000684460E99089A12
:109A100061440B00149815990092019332003B00A9
:109A200007F014FF80231B06CB1808900E9330001C
:109A3000390000225B4B04F089FB06000F00013C5B
:109A4000059B1293179B9C4206D00D9B059A1B69A0
:109A50001493053B9342BCD8079B002B09D1099B6B
:109A6000DB0606D5059B039A013305932E23129935
:109A70005354059A00259446039B634407931D7035
:109A8000069B652B2ED1169B5C1E039B1D55029BCE
:109A9000AB4202DA5B420293013503260A27169B8A
:109AA000F61A029B002B60D13319002B5DDC621E7D
:109AB0002D23002D00D1023B0399023C8B54119BB6
:109AC000413B192B01D845230693039B1919069B8B
:109AD0000B70049B023B0493059BA34202DA079898
:109AE00007F0F6FE0323099A1340022B12D1049BC0
:109AF000002B0FDD039807F0A1FE039B049A9B182F
:109B00000B9A824242DD049A3021109807F08EFEB3
:109B100000230A930398CDE6079B002B0DD1002C60
:109B20000BDA059B039A01330593049B1299013BC1
:109B300004932E2353542D3B0793059B3021EA18A1
:109B4000944602E0039AD15401339C45FAD162460F
:109B5000059B303001335B190593049B013B5B1B74
:109B60000493039B002598544DE70298390001F0B7
:109B7000DFFC039B3031013C19550298390001F09C
:109B8000F1FB049B0290013B04938AE7039A125C69
:109B90001A540138B4E7C0460000F07F1C180100D9
:109BA0000000F03F00002440D4FEFFFF00005043BF
:109BB000029B002B16DA66230693059B013305935F
:109BC000069B662B10D1029B002B03DA0023002694
:109BD0003D4F02930C9B672B04D0029A059B944641
:109BE000634405936623069300230E960F97089C03
:109BF000079D12930E9A0F9B2000290004F0A6FAED
:109C000004F0D4FC1490159106F0F8FE8021220097
:109C100009066B18179000920193149815990E9AE3
:109C20000F9B07F013FE80231B06CD180022274B45
:109C300004000E980F9904F089FA129B0E900F9170
:109C400001331293129A059B9342D3D10022204BE9
:109C500002F088FA0E900F9102000B0020002900FC
:109C600006F0FCFC00280AD10E9A0F9B2000290068
:109C700006F028FF002806D0179BDB0703D400233B
:109C800000240E930F940E9A0F9B0898079901F0E9
:109C90001DFE069B08900E91029C652B00D10024AE
:109CA0000025059B0795E31A17930B9B0593C7E6C1
:109CB000012305933FE60623FBE70C9B672BFAD0B5
:109CC00006930623059378E70000F03F0000244048
:109CD00000001440F0B58DB0F34CF449200007F0BB
:109CE000F7FD200007F0AAFD0019F14E37002437D8
:109CF0000C22390007F037FDEE4D310030312A6873
:109D0000684607F099FC6946200007F0A0FC310086
:109D100048316A68684607F08FFC6946200007F002
:109D200096FC31005831AA68684607F085FC694600
:109D3000200007F08CFC31007031EA68684607F0BB
:109D40007BFC6946200007F082FCDB4E311D2A694E
:109D5000684607F071FC6946200007F078FC310086
:109D600020316A69684607F067FC6946200007F001
:109D70006EFC31003431AA69684607F05DFC694623
:109D8000200007F064FC31004831EA69684607F0BA
:109D900053FC6946200007F05AFC31005C312A6A06
:109DA000684607F049FC6946200007F050FC686AE5
:109DB00006F0D0FB02000B0031007431684607F05A
:109DC0003BFC6946200007F042FCBC4E31000831E4
:109DD000AA6A684607F030FC6946200007F037FCA5
:109DE000E86A06F0B7FB02000B003100203168463C
:109DF00007F022FC6946200007F029FC31003431CD
:109E00002A6B684607F018FC6946200007F01FFC23
:109E1000686B06F09FFB02000B0031004C31684676
:109E200007F00AFC6946200007F011FC31006031A0
:109E3000AA6B684607F000FC6946200007F007FCA3
:109E400031007831EA6B684607F0F6FB694620007E
:109E500007F0FDFB286C06F07DFB02000B00984E1E
:109E600031001031684607F0E7FB6946200007F033
:109E7000EEFB2A00443231002431684607F0DCFB57
:109E80006946200007F0E3FB2A00543231003831E4
:109E9000684607F0D1FB6946200007F0D8FB310087
:109EA0004C316A6E684607F0C7FB6946200007F030
:109EB000CEFB31006431AA6E684607F0BDFB6946EF
:109EC000200007F0C4FB31007831EA6E684607F0E5
:109ED000B3FB6946200007F0BAFB7A4E31000C3123
:109EE0002A6F684607F0A8FB6946200007F0AFFB21
:109EF000310020316A6F684607F09EFB69462000FA
:109F000007F0A5FB31003831AA6F684607F094FBD3
:109F10006946200007F09BFB31004C31EA6F684630
:109F200007F08AFB6946200007F091FB8023EA587E
:109F300031006431684607F07FFB6946200007F076
:109F400086FB8423EA5831007831684607F074FBB9
:109F50006946200007F07BFB8823EA585A4E3100FF
:109F60001031684607F068FB6946200007F06FFB78
:109F70008C23EA5831002431684607F05DFB6946BE
:109F8000200007F064FB9023EA5831003C3168461A
:109F900007F052FB6946200007F059FB2A00943273
:109FA00031005031684607F047FB6946200007F052
:109FB0004EFB2A00A43231006431684607F03CFBB6
:109FC0006946200007F043FBB423EA58310078319A
:109FD000684607F031FB6946200007F038FB200097
:109FE00007F02CFC0019394903220C3107F0BBFBA8
:109FF0007D21200007F088FB05003900200006F0D5
:10A000005BFE2D1A6AD4314E31001031264806F01D
:10A0100053FE0400AA1C31001C31684607F00CFBFB
:10A020006B461A78002A07D000230734E254013324
:10A030006A469A5C002AF9D11B4C200007F0D8FA36
:10A0400007F0E4FB224A214B203303CB03C21B88D9
:10A05000138000236A4693702478002C16D01D4D7F
:10A060000F271B4E200907F0F5F96B4618702000EA
:10A07000384007F0EFF96B4658706946300007F03A
:10A08000E6FA01356B1E1C78002CEBD1104C200039
:10A0900007F0D4FB0019104903225C3107F063FB81
:10A0A000200005F007F919E0C02B00202C47002004
:10A0B000F88B000030410020788C0000F88C000004
:10A0C000788D0000F88D0000788E0000F88E00007A
:10A0D000F0230020C12B0020F88A00000DB0F0BD55
:10A0E000F8B5DE4657464E464546E0B50400150035
:10A0F0000F270F404EB2431E033300D9C2E108239D
:10A10000D356022B00DDC0E1022F00D9C0E1436A23
:10A1100098463B0010339B00C3185968321108233E
:10A1200013408A469A445346DB79DB0700D4B2E1F8
:10A130006B68994653469988484603F053F90029BD
:10A140004CD0002E00DBA9E1E378002B4CD000239B
:10A15000AB6103332B720023994669682962534629
:10A160001A68002A00D072E104232B720023EB61ED
:10A1700053461D60002F00D02BE1002E00DAE8E0EE
:10A180002123E35C032B6AD0042B00D1C7E0012B11
:10A1900000D061E1216D0832286807F0E4FA8223DB
:10A1A0005B0040224146CA54F43B0822FF328B54E4
:10A1B0000A22FF328B542B689A79002A44D121233A
:10A1C0000732E2545346AA691A6002232B72EB68E5
:10A1D000002B00D140E1280098473DE1002E0EDB26
:10A1E000E378002B00D05CE1A37B012B1BD07F2008
:10A1F00040423CBC90469946A246AB46F8BD2B7CFB
:10A20000DA0706D54A46002A03D080225242134379
:10A210002B74E378002BE7D00023AB6103332B7260
:10A220000023994699E700239B46A3730A202056F2
:10A2300006F092FA81465B46AB6103332B72002134
:10A24000002E00DB8AE788E71B787F2B03D82123C9
:10A250000222E254B6E721230622E254B2E7666DF9
:10A26000B604B60C286A6B6832189A4201D91E1AD5
:10A27000B6B2216D2B689C466044320007F073FA39
:10A280002B6AF3182B626A6893421BD300232B724C
:10A2900021330822E254203BFF3241468B540A22EC
:10A2A000FF328B540433FF33C93ACA542B6A6B60B4
:10A2B0005346AA691A60EB68002B00D1CCE0280055
:10A2C0009847C9E053469B88B3421BD901232B72A0
:10A2D00021220821A1540822FF3241468B540A2230
:10A2E000FF328B540433FF33C93ACA542B6A6B6074
:10A2F0005346AA691A60EB68002B00D1ACE0280035
:10A300009847A9E001230822FF3241468B540A22D4
:10A31000FF328B540433FF33C93ACA549CE0002304
:10A320002122A3542B7201330822FF3241468B5461
:10A330000A22FF328B540433FF33C93ACA545346BE
:10A34000AA691A60EB68002B00D185E028009847C5
:10A3500082E02123E35C062B14D0072B7CD1212340
:10A360000822E254636E9B0B9B0363660223FF3259
:10A3700041468B540A22FF328B540623FF33893A1D
:10A38000CA5469E02B6A52469688B34200D29EB204
:10A39000206E3200296807F0E6F92B6A9B1B2B62BE
:10A3A00021230922E254636E9B0B9B036366626E5A
:10A3B000B3049B0C1343636602230822FF32414619
:10A3C0008B540A22FF328B540623FF33893ACA5436
:10A3D00042E0002E12DB29687B01E21811651F00A4
:10A3E000474405220821FF317A543B000A33FF33EA
:10A3F0001A7082235B003B32FA542DE0286A9B8856
:10A40000984200D883B26A68101A2A689446604459
:10A410007A01A1180866286AC01A2862486E800B63
:10A4200080034866486E9B049B0C03434B661300F5
:10A4300043440A220821FF315A541F000A37FF37CC
:10A440003A700622FF328739995405E01A00936961
:10A45000002BFBD19561EA61E3780020002B00D04E
:10A46000C7E64B46002B09D0A37A5AB2002A05DB77
:10A470001F221A40012393400D4A13600123A37346
:10A480000020B6E67D204042B3E67B204042B0E6A5
:10A490007C204042ADE676204042AAE67D20404244
:10A4A000A7E60023AB6103332B720023994655E6E0
:10A4B00000E100E00023F0B506001500AFB0059103
:10A4C000019305990B78002B00D10FE101235B422A
:10A4D0000A930EAB00240C93802309940B940D93E4
:10A4E0000B5D002B01D0252B2AD1002C06D0220099
:10A4F000300006F061FD059B1B190593059B1A783A
:10A50000252A00D0E7E001330293059302231021AE
:10A510009C460827059803782B2B1BD025D8202B89
:10A520001BD0232B1DD02A2B2AD006F0B7F80B9076
:10A53000059B1A78303A092A33D801330593F7E797
:10A540000134CDE70122099B80180393134309933B
:10A550000590DFE70423099A0EE0099B03933B4330
:10A560000BE0099B03930B4307E02D2BEAD0302B24
:10A57000D9D16246099B0393134309930130E7E75E
:10A580002B6801301A1D1B6805902A600B93002B65
:10A5900007DA099A5B420392012203990B934A401E
:10A5A0000992099BDA0702D5022293430993059B7E
:10A5B0001A782E2A0ED10022581C0A9205905A7839
:10A5C0002A2A28D1023305932B681A1D1B682A609A
:10A5D00003930A9305A806F02BFA059B0700187849
:10A5E00007F051F9692800D183E035DC632800D1F8
:10A5F000D6E01BDC252800D1DFE0612859D02523D7
:10A6000006AA1370029B0593002309930B93013B49
:10A610000A930233B2E006F041F80A90059B1A78DB
:10A62000303A092AD6D801330593F7E7642860D079
:10A630006728E4DC2A00390006A806F0A7FB0028FA
:10A6400000D1A9E0059B09A95A1C05921B7806AA0E
:10A650003000FFF7E1F83DE0702800D17DE016DC26
:10A660006E2800D191E06F28C9D12B00002239005B
:10A6700006A804F0F9F8002800D18DE0059B06AA91
:10A68000013309A93000059304F0E2FF22E07528A8
:10A6900040D078284FD07328B1D1802F00D07BE0F4
:10A6A000059B2A6801330593131D2B601268002354
:10A6B00064E02A00390006A806F068FB002800D1F3
:10A6C0006AE0059B09A95A1C05921B7806AA30006E
:10A6D00007F022F92418019B1C19A34200DC74E046
:10A6E0004F223B4B1A6001235B42019301982FB02C
:10A6F000F0BD2B000122390006A804F0B5F80028AF
:10A700004AD0059B06AA013309A93000059303F03E
:10A71000A7FFDFE72B000022390006A804F0A4F809
:10A72000002839D0059B06AA013309A930000593FA
:10A7300005F0BEFBCEE72B000022390006A804F08E
:10A7400093F8002828D0059B5A1C05921B7806AA6E
:10A7500009A9300002F05CFABCE72B000022F021CE
:10A7600006A804F081F8002816D0059B079A01334B
:10A770000593069B134306D1164A163209A93000E9
:10A7800005F0E4FCA6E77823E1E7019B39001A19FC
:10A7900006A82B0005F068F8059B013305939AE79E
:10A7A000802FF9D1059B013305932B681A1D1B6877
:10A7B0002A6006AA13700123E0E7802FECD1059BE5
:10A7C00006AA013305931070F5E7019479E6C046B7
:10A7D000BC4B0020C4140100F0B58DB09B4E31007D
:10A7E0002C319B4C200005F009FB9A4D6865310027
:10A7F0003431200005F002FBA86531003C31200017
:10A8000005F0FCFAE86531004431200005F0F6FA65
:10A810002866914C9149200007F05AF8200007F073
:10A820000DF800190C228E4906F09DFF2F0004CF71
:10A830008C493031684606F0FFFE6946200006F07C
:10A8400006FF310058313A00684606F0F5FE6946C9
:10A85000200006F0FCFE2A00143231006431684604
:10A8600006F0EAFE6946200006F0F1FE2A002432D6
:10A8700031007431684606F0DFFE6946200006F0BC
:10A88000E6FE2A003432784F391D684606F0D4FEC1
:10A890006946200006F0DBFE686C05F05BFE0200F6
:10A8A0000B0039001831684606F0C6FE69462000E4
:10A8B00006F0CDFEA86C05F04DFE02000B0039003D
:10A8C0002C31684606F0B8FE6946200006F0BFFE4F
:10A8D00039004031EA6C684606F0AEFE6946200059
:10A8E00006F0B5FE390050312A6D684606F0A4FE28
:10A8F0006946200006F0ABFE390060316A6D68469B
:10A9000006F09AFE6946200006F0A1FE39006C317F
:10A91000AA6D684606F090FE6946200006F097FE94
:10A9200039007831EA6D684606F086FE69462000F7
:10A9300006F08DFE4D4F391D2A6E684606F07CFEEE
:10A940006946200006F083FE686E05F003FE0200F3
:10A950000B0039001031684606F06EFE6946200093
:10A9600006F075FEA86E05F0F5FD02000B0039003B
:10A970001C31684606F060FE6946200006F067FE5E
:10A98000200006F05BFF001931000C31032206F0B5
:10A99000EAFE7D21200006F0B7FE050030492000C8
:10A9A00006F08AF92D1A4FD4284E310010312A486A
:10A9B00006F082F90400AA1C31001C31684606F03A
:10A9C0003BFE6B461A78002A07D000230734E25476
:10A9D00001336A469A5C002AF9D11F4C200006F028
:10A9E00007FE06F013FF224A184B203303CB03C2A5
:10A9F0001B88138000236A4693702478002C16D09D
:10AA00001C4D0F271A4E200906F024FD6B461870C6
:10AA10002000384006F01EFD6B4658706946300035
:10AA200006F015FE01356B1E1C78002CEBD1104C86
:10AA3000200006F003FF00190F4903225C3106F0E5
:10AA400092FE200004F036FC0DB0F0BDF88E000040
:10AA5000404A002060460020C02B00202C470020E8
:10AA6000448F0000F88B0000788F0000F88F000002
:10AA7000F0230020C12B0020F88A000070B5FA21D5
:10AA80009B4D9C482B689C466044090104F020F8CB
:10AA9000040005F033FB2B689C4664442C60964B05
:10AAA000FF221A70062C41D00D2C4ADD9349483103
:10AAB000904806F001F9002802D08F4B00221A704E
:10AAC0008E4958318B4806F0F7F8002802D08A4B9F
:10AAD00002221A70142C37DD88496031854806F04F
:10AAE000EBF8002802D0844B03221A70152C09DDE4
:10AAF000824968317F4806F0DFF8002802D07E4B9B
:10AB000003221A707A4B1B68032B2ED17B497831B4
:10AB1000784806F0D1F8002805D0754B00221A605D
:10AB2000754B04321A70724B1C682CE0734940312B
:10AB3000704806F0C1F80028CCD06F4B01221A7083
:10AB4000C8E70A2CC6DDBBE7042CDBD16B497031AA
:10AB5000684806F0B1F8002807D0654B00221A605B
:10AB6000654B04321A7000240DE0614B1C68092CFF
:10AB700009DD62497C315F4806F09EF8002802D06A
:10AB80005D4B05221A70172C36DD5D490831594896
:10AB900006F092F8002807D00D2106F0B5FD002838
:10ABA00002D0554B06221A70242C10DD5148002388
:10ABB00003555349103106F07FF8002807D00D21C6
:10ABC00006F0A2FD002802D04B4B07221A704C4918
:10ABD0001831484806F070F8002802D0464B082289
:10ABE0001A7047492031434806F066F8002820D003
:10ABF000414B08221A7001E0052CE8DC3C4B1C6834
:10AC0000062C27DD3E4940313A4806F055F8002829
:10AC100002D0394B09221A7039494831354806F0BB
:10AC20004BF8002816D0344B0F221A700E2C13DC70
:10AC300030E0334928312F4806F03EF80028DDD0B7
:10AC400000232B4A13602F4A13702D48303004F034
:10AC500031FBD3E70E2C19DD264800230355284984
:10AC6000503106F029F8002810D02221214806F0A2
:10AC70004BFD00280AD0224902305C3106F01CF856
:10AC8000002803D01C4B0A221A7003E01A4B1B78D1
:10AC9000FF2B1FD01A4C2000603006F0A9FC164E86
:10ACA000307806F0E5FB3A2006F028FC164D2878AF
:10ACB00006F0DEFB2000643006F09AFC327829783A
:10ACC000D3009B185B009B185B189B000F4A9B5896
:10ACD000984770BD06F0FCF8012805D00228F8D18D
:10ACE000054B0C221A70D5E7034B0B221A70D1E7E3
:10ACF000984B0020000000206E4B0020788A000056
:10AD0000F88A00006F4B00208B4700209033002012
:10AD1000F0B5DE4657464E464546E0B583B07F4B1C
:10AD20009B7D002B00D1F1E07C4A137EDBB2927D4B
:10AD300052B2002A18DB794A137EDBB2927DD20729
:10AD400000D4D6E0DB0700D4D3E0754C754B9846B1
:10AD5000734B1B699946724B187D704A01239B46C1
:10AD600007256B46991D30E05BB2002BE3DA6B4B95
:10AD70005B8B07221340DED0694AD387674B802262
:10AD80001A76793A5A831B7E5B0705D5634B0421FB
:10AD90001A8D1A7E0A42FBD1614B1B6A002BCAD066
:10ADA0005F4A516A02209847C5E75F00BC464746A4
:10ADB0006646BE5D0E70C444664676784E700133BA
:10ADC00016E00B78138500281ED1137E5E463342B1
:10ADD00000D18EE0A3689C46E3689C4500D185E0E5
:10ADE00057682F40012FE0D04E4FFF5C0F700133AA
:10ADF0004B45BF413B404A4FFB6053682B40012B02
:10AE0000DFD10B881385DEE706F042FC444B1B685C
:10AE1000002B9DD0424A127F002A08D0404A9269F6
:10AE2000904295D33E4A51680320984790E73C4AA8
:10AE3000926990428CD13A4A51680320984787E73B
:10AE40004246126A002A23D0696A01209047AB6A01
:10AE500001332A6B93429241134019E0304A926ABF
:10AE600031498C542E4A93623423D35C002B22D177
:10AE70002A4B1B7E5B0749D5284B1C8DA4B2B36AB5
:10AE80000133326B934292411340FA6A9A42D7D00F
:10AE9000234AD26A9A42EBD0204A516807220A40DC
:10AEA000012ADBD11E4A916A49001F4A54545218A4
:10AEB000240A5470D6E706F033FA194B1B6A002BAC
:10AEC000D6D017493C228A5C002A06D08A6B904271
:10AED000CED3496A00209847CAE7114A926B904244
:10AEE000C6D10F4A516A00209847C1E70B4B012297
:10AEF0001A750A4A137EDBB2927D520706D55B07AC
:10AF000004D5074E3700B0463500B1E703B03CBC6E
:10AF100090469946A246AB46F0BDC04600080042A6
:10AF20004049002074430020F4420020F0B5DE4682
:10AF300057464E464546E0B583B07F4B9B7D002B80
:10AF400000D1F1E07C4A137EDBB2927D52B2002A3E
:10AF500018DB794A137EDBB2927DD20700D4D6E0AB
:10AF6000DB0700D4D3E0754C754B9846734B1B69D7
:10AF70009946724B187D704A01239B4607256B4604
:10AF8000991D30E05BB2002BE3DA6B4B5B8B072241
:10AF90001340DED0694AD387674B80221A76793A0C
:10AFA0005A831B7E5B0705D5634B04211A8D1A7EDD
:10AFB0000A42FBD1614B1B6A002BCAD05F4A516A1F
:10AFC00002209847C5E75F00BC4647466646BE5D1F
:10AFD0000E70C444664676784E70013316E00B78E6
:10AFE000138500281ED1137E5E46334200D18EE0C9
:10AFF000A3689C46E3689C4500D185E057682F40D4
:10B00000012FE0D04E4FFF5C0F7001334B45BF4125
:10B010003B404A4FFB6053682B40012BDFD10B882C
:10B020001385DEE706F03EFB444B1B68002B9DD0EA
:10B03000424A127F002A08D0404A9269904295D332
:10B040003E4A51680320984790E73C4A92699042F3
:10B050008CD13A4A51680320984787E74246126AE2
:10B06000002A23D0696A01209047AB6A01332A6B1A
:10B0700093429241134019E0304A926A31498C540C
:10B080002E4A93623423D35C002B22D12A4B1B7EA1
:10B090005B0749D5284B1C8DA4B2B36A0133326BD0
:10B0A000934292411340FA6A9A42D7D0234AD26A15
:10B0B0009A42EBD0204A516807220A40012ADBD18C
:10B0C0001E4A916A49001F4A54545218240A547067
:10B0D000D6E706F041F9194B1B6A002BD6D0174969
:10B0E0003C228A5C002A06D08A6B9042CED3496A01
:10B0F00000209847CAE7114A926B9042C6D10F4A86
:10B10000516A00209847C1E70B4B01221A750A4A81
:10B11000137EDBB2927D520706D55B0704D5074E3E
:10B120003700B0463500B1E703B03CBC90469946C5
:10B13000A246AB46F0BDC046001C0042804900203C
:10B1400074440020F4430020F0B5DE4657464E46D6
:10B150004546E0B583B07F4B9B7D002B00D1F1E0ED
:10B160007C4A137EDBB2927D52B2002A18DB794A08
:10B17000137EDBB2927DD20700D4D6E0DB0700D489
:10B18000D3E0754C754B9846734B1B699946724BCF
:10B19000187D704A01239B4607256B46991D30E0B8
:10B1A0005BB2002BE3DA6B4B5B8B07221340DED0E4
:10B1B000694AD387674B80221A76793A5A831B7E75
:10B1C0005B0705D5634B04211A8D1A7E0A42FBD119
:10B1D000614B1B6A002BCAD05F4A516A0220984714
:10B1E000C5E75F00BC4647466646BE5D0E70C44478
:10B1F000664676784E70013316E00B78138500288A
:10B200001ED1137E5E46334200D18EE0A3689C4679
:10B21000E3689C4500D185E057682F40012FE0D0BE
:10B220004E4FFF5C0F7001334B45BF413B404A4FCF
:10B23000FB6053682B40012BDFD10B881385DEE7C1
:10B2400006F03AFA444B1B68002B9DD0424A127F0D
:10B25000002A08D0404A9269904295D33E4A5168EC
:10B260000320984790E73C4A926990428CD13A4A31
:10B2700051680320984787E74246126A002A23D084
:10B28000696A01209047AB6A01332A6B934292416D
:10B29000134019E0304A926A31498C542E4A936225
:10B2A0003423D35C002B22D12A4B1B7E5B0749D56C
:10B2B000284B1C8DA4B2B36A0133326B9342924186
:10B2C0001340FA6A9A42D7D0234AD26A9A42EBD004
:10B2D000204A516807220A40012ADBD11E4A916A9E
:10B2E00049001F4A54545218240A5470D6E706F0F5
:10B2F0004FF8194B1B6A002BD6D017493C228A5CA9
:10B30000002A06D08A6B9042CED3496A0020984723
:10B31000CAE7114A926B9042C6D10F4A516A002087
:10B320009847C1E70B4B01221A750A4A137EDBB21C
:10B33000927D520706D55B0704D5074E3700B0460D
:10B340003500B1E703B03CBC90469946A246AB46F7
:10B35000F0BDC04600100042C049002074450020E6
:10B36000F444002003460B437FD4002243088B4261
:10B3700074D303098B425FD3030A8B4244D3030B7C
:10B380008B4228D3030C8B420DD3FF22090212BA41
:10B39000030C8B4202D31212090265D0030B8B42BD
:10B3A00019D300E0090AC30B8B4201D3CB03C01AA7
:10B3B0005241830B8B4201D38B03C01A5241430B82
:10B3C0008B4201D34B03C01A5241030B8B4201D372
:10B3D0000B03C01A5241C30A8B4201D3CB02C01ADD
:10B3E0005241830A8B4201D38B02C01A5241430A55
:10B3F0008B4201D34B02C01A5241030A8B4201D344
:10B400000B02C01A5241CDD2C3098B4201D3CB01EA
:10B41000C01A524183098B4201D38B01C01A524199
:10B4200043098B4201D34B01C01A524103098B429D
:10B4300001D30B01C01A5241C3088B4201D3CB0088
:10B44000C01A524183088B4201D38B00C01A52416B
:10B4500043088B4201D34B00C01A5241411A00D21B
:10B4600001465241104670475DE0CA0F00D0494284
:10B47000031000D34042534000229C4603098B42F4
:10B480002DD3030A8B4212D3FC22890112BA030A7C
:10B490008B420CD3890192118B4208D389019211FE
:10B4A0008B4204D389013AD0921100E08909C30983
:10B4B0008B4201D3CB01C01A524183098B4201D385
:10B4C0008B01C01A524143098B4201D34B01C01A70
:10B4D000524103098B4201D30B01C01A5241C308E8
:10B4E0008B4201D3CB00C01A524183088B4201D357
:10B4F0008B00C01A5241D9D243088B4201D34B0072
:10B50000C01A5241411A00D20146634652415B10B3
:10B51000104601D34042002B00D549427047634694
:10B520005B1000D3404201B5002006F0F7F902BDE0
:10B530000029F8D016E770470D0A000020202020CF
:10B5400020202020202020202020202020202020FB
:10B5500020202020202020202020202020202020EB
:10B56000202000000A0D0000202020202020202084
:10B570002000000044207B58585858585858582CE0
:10B5800058585858585858587D200A0D0000000047
:10B590000A0D5320585858582058580A0D000000DA
:10B5A0000A0D572058585858585858582058585825
:10B5B00058585858580A0D000A0D462058585858DF
:10B5C000585858582058582058585858585858586B
:10B5D000580A0D000D0A443A44756D70204D656D92
:10B5E0006F7279202020207B204164647265737320
:10B5F0002053697A65207D2E2E4C6974746C652009
:10B60000456E6469616E0A0D00000000423A44759F
:10B610006D70204D656D6F7279202020207B204158
:10B620006464726573732053697A65207D2E2E429F
:10B63000696720456E6469616E0A0D00533A53755F
:10B64000627374697475746520202020207B20410A
:10B650006464726573732056616C75657D81409872
:10B660004191B193FC97CD82CC8FEA8D8782CD83B7
:10B6700073838A8349836882C592868E7E0A0D0011
:10B68000483A313662697420496E2F4F7574204DE7
:10B69000656D6F7279207B204164647265737320DD
:10B6A0007D0A0D00573A333262697420496E2F4F7C
:10B6B0007574204D656D6F7279207B2041646472D2
:10B6C000657373207D0A0D00463A46696C6C204D07
:10B6D000656D6F7279202020207B20416464726543
:10B6E00073732056616C75652053697A657D0A0D08
:10B6F000000000005441423A486973746F72790A3D
:10B700000D00C046F0B5D6464F464646C0B586B099
:10B7100007006B4B1B68002B00DCB8E00024002600
:10B72000684D694B2C33019327E0019805F060FFC9
:10B73000644B186805F0A5FD3A2005F0DFFE002FE8
:10B7400000D0AAE00421286805F042F8631C99465D
:10B75000A4002B681B6802AAA350202005F0CEFE8F
:10B760004B46042B3BD04C460436564A13680433F0
:10B770001360534B1B68B3424ADD002CD5D0002F19
:10B78000E0D0504B99461B68186805F07AFD631CA1
:10B790009A46A4004B461B681B6802AAA3502020AF
:10B7A00005F0ACFE53465446042BDDD102AB99465E
:10B7B00006AB9A464B4610CB9946200E05F09EFEEE
:10B7C0002014C0B205F09AFE2012C0B205F096FE19
:10B7D000E0B205F093FECA45ECD10024C4E702AB09
:10B7E000994606AB9A464B4610CB9946E0B205F017
:10B7F00085FE2012C0B205F081FE2014C0B205F013
:10B800007DFE200E05F07AFECA45ECD10024ABE7A0
:10B81000002C3CD0032C08DC25002B4E30363000A9
:10B8200005F0E6FE0135042DF9D1002C2BDD0026B4
:10B83000A300984613E002AB4246D558E8B205F0A3
:10B840005DFE2812C0B205F059FE2814C0B205F002
:10B8500055FE280E05F052FE0136B44213D0002FDB
:10B86000E9D002AB4246D558280E05F047FE281411
:10B87000C0B205F043FE2812C0B205F03FFEE8B2A8
:10B8800005F03CFEE8E710482C3005F0B1FE06B0AC
:10B890001CBC90469946A246F0BD0A4B99461B68CF
:10B8A000186805F0EEFC631C9A46A4004B461B6822
:10B8B0001B6802AAA350202005F020FE544653E73F
:10B8C000A44B0020A04B002038B50000F0B40125A7
:10B8D000ED070F005F405AD48B4200D1824205D958
:10B8E00050404240504059404B4059404E18760D10
:10B8F000DF187F0D3BD0741C640529D0F41B352C58
:10B9000026D80E0DDB022B43DB0AC9022943C912DC
:10B910001700202C1ED2E741E2405740E3415A4035
:10B92000A340E3405A400024801859410AD3B21C76
:10B93000520521D0C207012F624117004008CB07F2
:10B9400018434908013636054208AF41604171414C
:10B95000F0BC7047203C06D01F00E741E3405F4049
:10B960000024012A6741C0186141EBD3DFE7002EB4
:10B97000EED129400020EBE7013631050020E7E752
:10B98000E742E5D10020C143090DC904E0E76B405F
:10B990000E00871A9E4104D26E40C01BB141D219DD
:10B9A00073414E18DF18AC0AE642E9D2760D7F0DDE
:10B9B00031D0F41B362CCBD8B4460E0DDB022B4312
:10B9C000DB0AC9022943C90A012C32D804D1D407A1
:10B9D0005208DF073A435B08EF0A644290419941FD
:10B9E0001ED0002239424DD1241940414941012441
:10B9F000394204D10134001849413942FAD0624633
:10BA0000A24204D9361B013E36058919A0E7F10A86
:10BA1000C90700209CE736429AD10020002197E711
:10BA20000200224394D0B842DED20100200020243C
:10BA3000E3D1202C13DD203CE2411700A240E2407C
:10BA40005740E3415A40A340E3405A40012FBF41D1
:10BA50000137174300227C42984191410CE01700C6
:10BA6000E741E2405740E3415A40A340E3405A4097
:10BA70007C429041994100220F0303D2013E2419D8
:10BA800040414941013E36054708AC4150417141B2
:10BA9000F0BC704710B5694B9B7D002B17D0674BEE
:10BAA0005B8B9B0714D5664B2022FF2199540132F2
:10BAB000FD399954624A2023D35C5BB2013300D133
:10BAC0008BE05F4A2023D35C062B00D19DE010BDA4
:10BAD0005A4B5B8BDB0707D5594B2022FF2199542A
:10BAE0000132FD399954E5E7544B5B8B5B0707D571
:10BAF000534B2022FF2199540132FE399954D9E742
:10BB00004F4A2023D35C5BB2032B44D0042B0FD0CD
:10BB1000022BCFD11369002B04D09088002104F0B0
:10BB2000F3F9C7E7464B9888012104F0EDF9C1E726
:10BB3000434A9369126993420CD0414A9168CC5CA4
:10BB40003E4828214454013393610200D369002BFD
:10BB5000FCD1AFE73A4B5B69002B0ED0384B9B888A
:10BB60005B0001221343354A5362D369002BFCD199
:10BB7000334A20330321D1549CE7304A5168C02313
:10BB80009B020B435360D369002BFCD12C4A20331A
:10BB90000621D1548EE72A4A5369013BD2699A4261
:10BBA0000DD0264AD369002BFCD1254AD3692348FE
:10BBB0002821415CD068C1540133D3617AE71F4A20
:10BBC0005168E023DB020B435360D369002BFCD1A7
:10BBD0001B4A20330621D154E3E720230021D1540E
:10BBE000164A5168C0239B020B435360D369002B54
:10BBF000FCD1124B83221A76114B5B6A002B00D1C9
:10BC000065E70F4A906A984761E7130000222021F8
:10BC10005A5401315A54094B83321A761900533A57
:10BC20004B8B1340102BFBD1054B5B6A002B00D1D3
:10BC30004DE7034A906A984749E7C046001400421E
:10BC4000B04A0020F8B55E4C28345E4F5E4D0C358E
:10BC5000FF26200005F0CCFC05F04EF905F00CFEA7
:10BC6000304003385328F4D880003B589F4654484E
:10BC7000303003F01FFBEBE75148583005F0B8FCBB
:10BC800003F054FDE4E75148683003F013FBDFE7AD
:10BC90004B48703003F00EFBDAE74D4803F00AFB27
:10BCA000D6E74B480C3005F0A3FC05F072F905F01F
:10BCB00093FCCDE74648143003F0FCFA43481430B7
:10BCC00003F0F8FA4348043003F0F4FAC0E7404EBA
:10BCD00030001C3003F0EEFA3000283003F0EAFAAE
:10BCE0003000343003F0E6FA3000403003F0E2FA7E
:10BCF000AEE73848343003F0DDFAA9E734484C3079
:10BD000003F0D8FAA4E73148443003F0D3FA9FE7B0
:10BD1000FDF7E0FF9CE73048303003F0CBFA97E7BF
:10BD20002B4E3000743005F063FC2C4B187805F076
:10BD30009FFB05F06BFD4021294804F049FD3000D0
:10BD40007C3005F055FC274B187805F091FB05F089
:10BD50005DFD7DE724490A78012353400B70012AD9
:10BD600004D01948043005F043FC71E7280005F0C1
:10BD70003FFC6DE7FA2212010021194805F056FD3B
:10BD8000184B00221A6063E7144B64221A705FE7B5
:10BD9000164B1A780123534014490B70012A06D020
:10BDA00080210022C900124805F07AFD50E70122E7
:10BDB00080215242C9000E4805F072FD48E7F8BDE7
:10BDC0007890000018C7000078910000F889000002
:10BDD000F8900000788A0000F88A00008B47002065
:10BDE00000000020984B00206F4B00208A47002065
:10BDF00080440041F0B557464E464546DE46E0B524
:10BE0000040083B00D00924699468B4230D82DD065
:10BE10004946504605F004FC29000600200005F0C4
:10BE2000FFFB331A9846203B9B4633D45A46534671
:10BE3000934042461F00534693401E00AF423AD8FB
:10BE4000AF4200D17BE05B46A41BBD41002B00DA72
:10BE500078E0002200230092019301235A46934088
:10BE60000193012342469340009328E08242CFD9B8
:10BE700000220023009201930C9B002B01D01C6038
:10BE80005D600098019903B03CBC90469946A2467B
:10BE9000AB46F0BD424620239B1A5246DA4041464B
:10BEA00013004A468A40170042461F4353469340B8
:10BEB0001E00AF42C4D900220023009201934346E2
:10BEC000002BD9D0FB079C46614672080A437B08C9
:10BED00046460EE0AB4201D1A2420CD8A41A9D41C5
:10BEE000012024196D410021013E24184D41002EEE
:10BEF00006D0AB42EED9013E24196D41002EF8D197
:10BF0000009801995B4600196941002B25DB2B0045
:10BF10005A464446D3402A00E2401C005B461500C6
:10BF2000002B2BDB26005F46BE4033002600474631
:10BF3000BE403200801A9941009001919CE7A342D3
:10BF4000B9D880E74246202300219B1A00220091A5
:10BF500001920122DA40019283E7424620239B1A94
:10BF60002A0046469A402300F340444613432A00E1
:10BF7000E2401C005B461500002BD3DA202342462A
:10BF800026009B1ADE402F00B4464646B740664660
:10BF90003B003343CAE7C046F0B5D6464F46464657
:10BFA000C0B50F260E40022E00D9B1E0FE25AD002F
:10BFB0001C00083CA4B2AC4200D9ACE0441C00D147
:10BFC000ACE0446AA146082B49D900240825013475
:10BFD000E4B26D00ADB2AB42F9D835001035AD001A
:10BFE00045196D68002A3CD12A60AB80AA710126F0
:10BFF000E9793143E971AA60AB81AA73EB7B3343E2
:10C00000EB7380235B004946CA541132CA54426D17
:10C0100044490A404265436E0B404366436D240722
:10C02000E022D205144023434365436E1C4344661B
:10C030000369036543690366436D5B005B08436501
:10C04000436E5B005B0843660A23FF3313224946B5
:10C05000CA5400201CBC90469946A246F0BD00245C
:10C06000BBE749B28A460911884608218C464146F9
:10C07000674639408C46654400212960AB80AA712F
:10C08000EB7901218C4661460B43EB715346002B43
:10C0900029DB73014B441F0080235B00FD5C0721FB
:10C0A0008D43FD54FD5C52001F49525C1543FD5405
:10C0B0000623FF334022FA5476005346D90F7618F0
:10C0C00036018019436D174A13404365436D2407B9
:10C0D000E022D20514401C434465436D5B005B08BD
:10C0E00043650020B6E773014B441F0080235B00CB
:10C0F000FD5C70218D43FD54FD5C520094460A4A5C
:10C10000624452781543FD5404338022FA54D3E735
:10C110007C2040429EE77C2040429BE77D204042BD
:10C1200098E7C046FFFFFF8FDC18010008D1002808
:10C1300006D1F54204D801D3002A01D16D0D09D1F1
:10C140000020C143090DC904F0BDF9D11242F7D155
:10C15000640DF5D00020C14349054908A6E0002040
:10C160006146F0BDF0B50127FF070E005E403E407E
:10C17000B446BE0A4C18DD18F442D7D2F542E4D2D8
:10C18000640DECD06D0DEAD06419C9023943460D37
:10C19000C0023143DB023B43DB0A10B48E4685B25A
:10C1A00097B26F43140C6C433E0CA419260C240464
:10C1B000BFB227439CB26C43A419190C6943250CE8
:10C1C000A4B249190D04090C6419000C95B2454339
:10C1D0003E0C76193743BFB2360C150C4543AD19EA
:10C1E000A6B2240CAD192E0437432E0C36199DB27D
:10C1F0004543AD19ACB22E0C89191D0C45436D1881
:10C200002E04290C3443704680B295B245433E0C4F
:10C2100076193743BFB2360C150C4543AD19A6B29B
:10C22000AD19240C2E0437432E0C36199DB245430C
:10C23000AD19ACB22E0C89191D0C45436D182E0496
:10C240003443290C75462D0C90B268433E0C80197E
:10C250000604BFB23E43070CA0B23F18120C6A435B
:10C26000D019020C80B2240CA4189AB26A43121995
:10C2700014042043120C89181B0C6B43C91810BC02
:10C2800001273D05294203D1B61940414941013CEE
:10C29000FF077D0D013D641B0BDB6D00AC4209DA2D
:10C2A000240500254208BE4168416141664631438C
:10C2B000F0BD54E74EE77047F0B5DE4657464E46B0
:10C2C0004546E0B583B004000E000F250D40022D59
:10C2D00002D9102900D0A6E0631C00D1A6E0676A4D
:10C2E000E378002B13D1A37B012B08D07F204042A1
:10C2F00003B03CBC90469946A246AB46F0BD002335
:10C30000A3730A20205604F027FA834601E0002395
:10C310009B46102E28D0002D56D17F238421490022
:10C320007B540821FF317B5481330021F954636C25
:10C33000D97901208143D971D97B8143D973E378BD
:10C340000020002BD4D15B46002B09D0A37A5AB22F
:10C35000002A05DB1F221A4001239340354A13604F
:10C360000123A3730020C3E71023842149007B54D9
:10C370000821FF317B5426004436019600211B0121
:10C380009946002398467F250823FF339C460120C9
:10C390004B01FB184E4642469A5584225200924663
:10C3A0009A445246157062469D54019A08CA0192F9
:10C3B000DA7916008643DE71DA7B16008643DE7377
:10C3C00001310329E4D1BAE776B2002E1BDB6B0101
:10C3D000FB1880204000195C0727B9431954052138
:10C3E0000820FF3019540933FF3319701035AD00A0
:10C3F00065196B68361108210E409E19F3790739CB
:10C400008B43F3719BE76B01FB1880204000195CA4
:10C410007027B94319540A210820FF3019540933F1
:10C42000FF331970E2E77C20404261E77D20404203
:10C430005EE7C04600E100E0F0B58DB0534C5449D2
:10C44000200005F045FA200005F0F8F90019514DDB
:10C450002E0028360C22310005F085F94E4F2900B8
:10C4600034313A00684605F0E7F86946200005F0E7
:10C47000EEF8786904F06EF802000B0029004031F4
:10C48000684605F0D9F86946200005F0E0F8B8697B
:10C4900004F060F802000B0029005031684605F0F6
:10C4A000CBF86946200005F0D2F87B7F3A7F29005F
:10C4B0006031684605F0C0F86946200005F0C7F80D
:10C4C000200005F0BBF90019344903220C3105F0B6
:10C4D0004AF97D21200005F017F905003100200000
:10C4E00004F0EAFB2D1A4FD42C4E310010312748AE
:10C4F00004F0E2FB0400AA1C31001C31684605F080
:10C500009BF86B461A78002A07D000230734E254C0
:10C5100001336A469A5C002AF9D11C4C200005F0D0
:10C5200067F805F073F91E4A1C4B203303CB03C296
:10C530001B88138000236A4693702478002C16D041
:10C54000184D0F27164E200904F084FF6B46187013
:10C550002000384004F07EFF6B465870694630007A
:10C5600005F075F801356B1E1C78002CEBD10C4CD6
:10C57000200005F063F900190B4903225C3105F036
:10C58000F2F8200002F096FE0DB0F0BDC02B0020A6
:10C590002C470020F88F0000A00F0020F88E00002C
:10C5A000F0230020C12B0020F88A000010B5564B64
:10C5B0009B7D002B53D0544A516807230B40127EB9
:10C5C00052075BD5504A906A50494A69C9688A4205
:10C5D00054D2002B44D14D4B5968885401325A61D2
:10C5E000494B1B7EDB0718D5474B01221A75474A7A
:10C5F00093699268934258D2444A1168C85C424990
:10C60000886201339361414B9A699B689A4262D078
:10C610003E4B5A69DB689A4269D03B4B1B7E9B07B5
:10C6200016D53B4B1B78002B19D0384B5A69DB6869
:10C630009A4211D1354B00221A77334907200875E9
:10C6400033490A701B6A002B09D0304A506A984758
:10C650002F4B1B78002B02D02B4B02229A7510BD5A
:10C660002A4B51005C68085301325A61264B1B7EED
:10C67000DB07D2D5244B01221A7508E0224A127E2C
:10C68000D207CAD5204A01211175002BAFD01F4A0D
:10C6900093699268934213D21C4A59001068085A51
:10C6A0001949886201339361ADE7184B1B69002B70
:10C6B00023D0154AFF219162013B144A1361A2E77E
:10C6C000124B1B69002B18D00F4A12499162013B93
:10C6D0000E4A136197E70D4B1B69002B98D10C4B49
:10C6E00001221A70084B1B7E9B079ED4B4E7064BB1
:10C6F00001229A7503321A758FE7044B9A699B6879
:10C700009A4200D084E7EAE7000C0042DC4A0020AD
:10C710002B470020FFFF0000BEBD000052BC000000
:10C7200052BC000052BC000052BC000052BC0000D1
:10C7300052BC000052BC000052BC000052BC0000C1
:10C7400052BC000052BC000052BC000052BC0000B1
:10C7500052BC000052BC000052BC000052BC0000A1
:10C7600052BC000052BC000052BC000052BC000091
:10C7700052BC000052BC0000BEBD000052BC000014
:10C7800052BC000052BC000052BC000020BD0000A2
:10C7900090BD000052BC000054BD000074BD0000FC
:10C7A00052BC000088BD000052BC000052BC00001A
:10C7B00052BC000052BC000052BC000052BC000041
:10C7C00052BC000052BC000052BC000052BC000031
:10C7D00052BC000052BC000052BC000052BC000021
:10C7E00052BC000052BC000052BC000052BC000011
:10C7F00052BC000052BC000052BC000052BC000001
:10C8000052BC000052BC000052BC000052BC0000F0
:10C810006EBC000078BC000086BC000090BC00002C
:10C8200052BC000052BC000052BC000052BC0000D0
:10C8300052BC000052BC000052BC00009ABC000078
:10C84000A2BC0000B4BC0000F2BC000052BC00005E
:10C8500052BC0000CEBC0000FCBC000006BD0000C5
:10C8600010BD000016BD0000F0B583B005000C003F
:10C870004978032900D179E01DD9052930D009294B
:10C880002CD1A278E3781B02134304D1C17807228C
:10C890000A40052A2ED0AD22AA5CDBB29A4200D112
:10C8A0007FE0AE23EF5C002F41D00233EA58002333
:10C8B000B4218C4633E001290AD1A278E3781B0227
:10C8C0001343012B05D1BF330022C254002100E0E5
:10C8D0000121280003F023FD03B0F0BD0121F8E79A
:10C8E000027880235B4213430370A278AC23C254C6
:10C8F0000021EEE7B8330632C25403F077FCAD23D3
:10C900000022EA54EB780732934304221343EB707E
:10C910000021DEE70133DBB20432BB4207D01168ED
:10C920004E79A0788642F5D160462950F2E7A27888
:10C93000AD23EA54280002F005FCEB78072293436C
:10C9400005221343EB70A27801AB1A70D523EB5C80
:10C950000021012BBDD1D733EB58002B23D0DC2293
:10C96000AA5801A90A2098470021B2E7A278E378E3
:10C970001B021343012B0FD00121022BA9D10278F6
:10C980000C331340022BA4D16379837043780122C6
:10C990001343437000219CE7BF330122C25400219E
:10C9A00097E7002195E7002193E77047F0B583B042
:10C9B000454B1A79052A65D89300444AD3589F46B7
:10C9C0000321002003F0E6FE3F4B1860431C59D0C2
:10C9D00000223F4904F02CFA3B4B01221A7151E02E
:10C9E000394B1B7B002B4DD0374B02221A7149E08B
:10C9F00004F05AFA002845D1334B03221A711D3234
:10CA00009B5C002B3ED0304C20230022E254213B83
:10CA1000A3618133210018319B00226B00F078FE66
:10CA2000A36901332ED1284B06221A712AE004F0A3
:10CA30003BFA002826D1244A2023D35C002B21D0A6
:10CA4000946B002C14D0234B1968136B1C19224FC4
:10CA50000026224D04E0511CA85401339C4205D00D
:10CA600018783200B942F6DC0A00F4E7194B196075
:10CA7000154B00229A6302321A7103E004F014FA93
:10CA8000002801D003B0F0BD0F4901235B42CB6108
:10CA900022330022CA541C3B0B71CB6B4A6B1C31F6
:10CAA00001300090002000F01BF8EBE704F0FCF9E7
:10CAB0000028E7D1044A2123D35C002BE2D01300E5
:10CAC00002221A71DEE7C046004A002090150100DC
:10CAD00079FB0000904B0020FF010000503800203F
:10CAE000F0B5C64600B506000F0015001C0006ABE9
:10CAF0001B78002800D073E0012252420A60404AAD
:10CB0000127C002A00D16EE0002C00D16EE09A0762
:10CB10000AD53B4BD989A14200D96AE0200000F038
:10CB200061FC641A022101E001211940344B5A6B67
:10CB30009B6A9A4260D2334B5B78012B05D060240C
:10CB40006442200004BC9046F0BD2E4B00225A7077
:10CB50002D4B1B7A5BB2012B10DD2B4A2C23D356B5
:10CB6000012B0ADD5023D3560226012B06DD254B6F
:10CB700001225A7080246442E3E70126224AF00031
:10CB800083199B009846904483199B009D5043460F
:10CB90005C600023444663611C4BE360464621749D
:10CBA00004F0A0FE164C636B0133636304F09EFE39
:10CBB0003E60217B2068424604F0D8F9041E03D170
:10CBC000104B01225A70BCE704F08CFE0C4A536BE8
:10CBD000013B536304F08AFE01235B423B60EFE7B5
:10CBE00078246442ADE776246442AAE77E24644256
:10CBF000A7E77E246442A4E780246442A1E7C046FC
:10CC00007C480020C04B0020F445002001F50000C6
:10CC1000F0B58FB00D934B680C9008938B680D00A6
:10CC20000993CB6816000393089B0F68002B60DB09
:10CC300002239F4310233B400A9333680593736894
:10CC40000693099B04930A9B002B06D0059B069A2A
:10CC5000134302D0099B023B049308233B400B93F0
:10CC60005A1E9341049AD31A04932B69039A5C1EAB
:10CC700000231355089B0793012C10DD059B069A92
:10CC8000134339D1079B002B36DC089A049B9B1A6F
:10CC9000079A9B18002B02DD02231F422CD10A9B0E
:10CCA000002B0BD00CCE134308D0039B0D9A1B19FD
:10CCB000013B1A703023039A023C13550B9B002B47
:10CCC00003D02023039A013C13552B6900975A1E69
:10CCD000039B121B19190C98099B02F063FB0C9B18
:10CCE0005B68DB0503D56B68984200DA18000FB06B
:10CCF000F0BD012308939DE70F22059B013C1340E3
:10CD000018005730092B01DC303318000D9B413BD4
:10CD1000192B06D820230343613B192B01D804F0BB
:10CD2000ABFD039B1855079B013B0793069B1A0716
:10CD3000059B1B091A43069B05921B0906939BE75B
:10CD400030B583B0002800D081E0444B1B78002B25
:10CD500000D07FE0414B01229A731A7020301A54A0
:10CD60004C685C62C87B58720020587098631871D8
:10CD70008D7A9D72CD7ADD720D7B1D734D7B5D7357
:10CD8000D87022705A6A013093780342FCD10A238A
:10CD9000D370334B1B685B0B0193019A1F23134025
:10CDA0001F2B33D02D4A526A108D9B0103431385EC
:10CDB000019B9B05DB0E1F2B2AD0108D034313858F
:10CDC000019BDB045B0F072B24D0108D1B03034357
:10CDD00013850B7A002B03D01378042003431370C0
:10CDE0001E4B5B7A012B17D01C4A516A0B7802202C
:10CDF00003430B70516A02228B781342FCD1174A0D
:10CE000020230221D154002003B030BD1A3BC9E7D2
:10CE1000023BD2E7043BD8E7104B5A6A1800503067
:10CE200050623C22002098540A6A1A645A6A138994
:10CE30000C308343897B032906D09BB213810021E8
:10CE4000064803F001FDCFE701310B43F5E7012070
:10CE50004042D9E701204042D6E7C046503E00207C
:10CE600024608000F0B5C64600B582B003F0A0F89B
:10CE700080210022C903404804F012FD3F4C1834C1
:10CE80003F4F3E4B5C3301933C4B984602E03D489C
:10CE900004F0AEFBFF26200004F0AAFB04F02CF8FF
:10CEA00004F0EAFC30401B383E28F4D880003B58A0
:10CEB0009F46FEF7C7FEEDE73048203004F098FBB0
:10CEC00004F01AF8060004F0A1FC313EF0B203F0C1
:10CED00033FFC0B204F0CCFADCE7284D2800303034
:10CEE00004F086FB04F008F83138C6B228003C3064
:10CEF00004F07EFB04F000F8322807D0332809D074
:10CF00003128C7D1300003F095FEC3E7300003F0AD
:10CF100037FEBFE7300003F033FEBBE7174854305D
:10CF200004F066FB04F035F801218140002212482C
:10CF300004F0B6FCAEE74046543004F059FB04F070
:10CF400028F801220121814052420B4804F0A8FC3C
:10CF5000A0E704F05BFC084804F0D6FC04F091F96B
:10CF600098E7019804F044FB8020000204F0D4FA12
:10CF700090E701F065FA8DE7804400417891000068
:10CF800004DB0000CC460020F8B5CE46474680B50D
:10CF9000060088460F240C40022C00D97CE0431C7C
:10CFA00000D17CE0476A230010339B00C3185D6802
:10CFB000C378002B10D1837B012B05D07F2040420A
:10CFC0000CBC90469946F8BD002383730A20305666
:10CFD00003F0C2FB814601E000239946002C2DD1CD
:10CFE00082235B00F722FA540823FF33783AFA547D
:10CFF000EB790227BB43EB71043C2100280003F0CE
:10D0000071FEEB7BBB43EB7328000830210003F07B
:10D0100069FEF3780020002BD2D14B46002B09D0BB
:10D02000B37A5AB2002A05DB1F221A40012393402B
:10D030001C4A13600123B3730020C1E743465BB26F
:10D0400098461B11082018402818C37902229343E0
:10D05000C3710421494203F045FE4346002B0DDB1A
:10D0600064013C1982235B001022E2540822FF3243
:10D070002021A154073AFF3AE254CAE764013F195C
:10D0800082235B002022FA540822FF324021B95447
:10D09000063AFF3AFA54BCE77C20404290E77D20F4
:10D0A00040428DE700E100E070B582B00400160058
:10D0B0006B460022DA710E2901D002B070BDEC255A
:10D0C00045433F4BED18B279F3791B0213432A0015
:10D0D000E03213802B00E4331B681B6C7231E8696B
:10D0E00098473378DB06DB0EDAB2012A2CD05BB22C
:10D0F000002B09D0022A38D0032ADED132000E21BB
:10D10000280003F054FDD8E73278602313400CD197
:10D1100052B2002A04DB31002800FFF7A5FBCCE760
:10D120003100280000F070FCC7E7402B06D0202B10
:10D13000C3D10121280003F0F2F8BEE732000E212E
:10D14000280003F034FDB8E7327860231340402B09
:10D1500005D031793200280002F0A8FFADE731791F
:10D160003200280002F0A2FFA7E7317900290AD196
:10D17000337860221A421BD16B46D97932002800DD
:10D1800001F020FF99E76B46DA1D280003F025FA2D
:10D19000EC2363430A4CE418E27807231340052B81
:10D1A00001D10028E4D10121280003F0B8F884E778
:10D1B0006B46D9793200280002F078FF7DE7C0463F
:10D1C000843F0020F8B504000D0016000823C35664
:10D1D000002B7DDD092979D88B003E4AD3589F4624
:10D1E0004378042293434370E427C3591B6C002106
:10D1F000C0699847E3591B6C8021E069984720007B
:10D2000002F0F4FFE3595B6A1021E0699847E359A3
:10D210001F6A402300228021E069B8479023E3562B
:10D22000022B07DC22008832E423E3589B6B0021A9
:10D23000E0699847E3780722934303221343E3709E
:10D24000E423E3581B69E0699847072303405B0028
:10D2500020780E22904318432070E2680E23184075
:10D26000022816D0B0239168E1501279023BE254B3
:10D27000AD230022E254D523E35C012B28D1D73320
:10D28000E358002B24D0DC22A25831002800984714
:10D290001EE0A2335169E150127C023BE254E7E701
:10D2A0004378042293434370E5E743780422134311
:10D2B0004370E0E7C3780722934301221343C3700E
:10D2C000D9E7C37807229343C370D4E7002DD2D1A6
:10D2D000F8BDC046080E0100002243088B4274D3FB
:10D2E00003098B425FD3030A8B4244D3030B8B4267
:10D2F00028D3030C8B420DD3FF22090212BA030C70
:10D300008B4202D31212090265D0030B8B4219D350
:10D3100000E0090AC30B8B4201D3CB03C01A524170
:10D32000830B8B4201D38B03C01A5241430B8B42B8
:10D3300001D34B03C01A5241030B8B4201D30B03A1
:10D34000C01A5241C30A8B4201D3CB02C01A5241C8
:10D35000830A8B4201D38B02C01A5241430A8B428B
:10D3600001D34B02C01A5241030A8B4201D30B0274
:10D37000C01A5241CDD2C3098B4201D3CB01C01A8E
:10D38000524183098B4201D38B01C01A5241430998
:10D390008B4201D34B01C01A524103098B4201D386
:10D3A0000B01C01A5241C3088B4201D3CB00C01AF3
:10D3B000524183088B4201D38B00C01A524143086B
:10D3C0008B4201D34B00C01A5241411A00D2014690
:10D3D000524110467047FFE701B5002004F09EFA65
:10D3E00002BDC0460029F7D076E77047F0B5DE46AB
:10D3F00057464E464546E0B585B0002900D175E058
:10D400003B4B1F6900249C4699461E00984602909B
:10D4100008E038485546855442469360631C013401
:10D42000994253D9344B5A6807231340012B19D022
:10D43000B268F568531CBB42804103409D4246D010
:10D440000298005D82462C4D686807250540012D35
:10D45000DFD1520027485546855482465244002564
:10D460005570D9E763469B6801936346DA68019B70
:10D470000133BB42804103409A4228D06200029DA2
:10D48000681C924602005046125C1202285C02435D
:10D490001500039218484068834607208246584684
:10D4A00052461040012807D0124A2800019D5055CD
:10D4B0004A469360631CB2E7019A55000D4A0398EF
:10D4C000505592465544020A6A70F1E71C0003F079
:10D4D00019FF002802D0084B01229A75200005B0E0
:10D4E0003CBC90469946A246AB46F0BD0C00EEE728
:10D4F000404900207443002000080042F0B5DE4699
:10D5000057464E464546E0B585B0002900D175E046
:10D510003B4B1F6900249C4699461E00984602908A
:10D5200008E038485546855442469360631C0134F0
:10D53000994253D9344B5A6807231340012B19D011
:10D54000B268F568531CBB42804103409D4246D0FF
:10D550000298005D82462C4D686807250540012D24
:10D56000DFD1520027485546855482465244002553
:10D570005570D9E763469B6801936346DA68019B5F
:10D580000133BB42804103409A4228D06200029D91
:10D59000681C924602005046125C1202285C02434C
:10D5A0001500039218484068834607208246584673
:10D5B00052461040012807D0124A2800019D5055BC
:10D5C0004A469360631CB2E7019A55000D4A0398DE
:10D5D000505592465544020A6A70F1E71C0003F068
:10D5E000ADFE002802D0084B01229A75200005B03C
:10D5F0003CBC90469946A246AB46F0BD0C00EEE717
:10D600008049002074440020001C0042F8B5CE463A
:10D61000474680B506000D000F240C40022C00D9AF
:10D620006DE0431C00D16DE0476A230010339B007E
:10D63000C3185B689846C378002B10D1837B012BFD
:10D6400005D07F2040420CBC90469946F8BD00238F
:10D6500083730A20305603F07FF8814601E00023EF
:10D660009946002C29D06DB2002D42DB08346401AC
:10D670003C19102363712D1108231D4045440321DB
:10D680004942280003F02EFBEB7902221343EB7191
:10D69000F3780020002BD6D14B46002B09D0B37A6B
:10D6A0005AB2002A05DB1F221A4001239340174A71
:10D6B00013600123B3730020C5E70623FF33202244
:10D6C000FA54103AFA54033C2100404603F00AFB96
:10D6D00002254346DB792B434246D371404608304E
:10D6E000210003F0FFFA4346DB7B2B434246D37312
:10D6F000CEE7083464013F1920237B71BBE77C200F
:10D700004042A0E77D2040429DE7C04600E100E0A6
:10D71000F8B50E0015001C00002862D101235B4201
:10D720000B60374B9B7A002B5ED0354B198920005C
:10D73000FFF758FE002C5AD000295BD1304B9A6B72
:10D74000DB6A9A4259D22F4B5B78012B03D06024BD
:10D7500064422000F8BD2B4B00225A702A4B1B7AE2
:10D760005BB2012B10DD284A2C23D356012B0ADD96
:10D770005023D3560231012B06DD224B01225A7071
:10D7800080246442E5E701211F48CB005F18BF00F9
:10D79000C7195A18920015507C6000227A611B4B01
:10D7A000FB6004F09FF8164CA36B0133A36304F0F5
:10D7B0009DF83760A17920683A0003F0D7FB041E7A
:10D7C00003D1104B01225A70C3E704F08BF80C4AC6
:10D7D000936B013B936304F089F801235B42336050
:10D7E000EFE778246442B4E776246442B1E77E240C
:10D7F0006442AEE77E246442ABE780246442A8E73B
:10D800007C480020C04B0020F445002091F400002B
:10D81000F0B53B4B3B4A1A60902252031A61012239
:10D8200040215A5401315A5401315A5401315A5449
:10D8300001315A54013106205854043801315854EA
:10D8400001315854013104245C54002145341955E8
:10D8500001341A5501341A5502341A5501341A5537
:10D860000134185501341A550134195501341A552B
:10D8700001341A55013403251D5502341A5501345B
:10D880001A5501341A5501341A55293C19550E35CB
:10D8900001341D5501341A55332699550234195552
:10D8A000123C3527DC550137D9550137D955013799
:10D8B000D8550137DC550137D9550137DC551A34B5
:10D8C0002B371F554434104F1F5110343F0B1F513D
:10D8D00032341A5501341A5505341A5501341A5583
:10D8E000C9329954013298540B329954253A9E54B6
:10D8F00003329D540132995406329954F0BDC0460A
:10D90000004400410003020000044000F0B5D64688
:10D910004F464646C0B5002867D1002968D08B69BC
:10D92000002B68D0354B0130187200221A83DA7848
:10D930000724A243DA708A69DA600E8A1E824D6972
:10D940005D610C7F0722144024011A787027BA43C6
:10D950009246002291460027B846C0274246DA5533
:10D960005246224382437F2422401A705A785B3CFD
:10D97000A4469C44643467461F51043440271F5119
:10D980000C341855083C4F461F5504341C4F1F518A
:10D9900008341B511B4C1C679B6774241855824329
:10D9A000033082435A70D422484698541032486A51
:10D9B0009850498C04329952002E10D000241E0039
:10D9C00005E010350134E4B2338AA34207D9EB688D
:10D9D000002BF6D01B69002BF3D09847F1E700200D
:10D9E0001CBC90469946A246F0BD01204042F7E794
:10D9F00001204042F4E701204042F1E7843F00204B
:10DA000001DC000097F7000030B583B005000C0082
:10DA1000002301934B78062B14D0082B5AD0002BEF
:10DA20003BD1BC2143520378DB07C022805CBF3A64
:10DA300002405200DB0F13436B542B00BC330193A5
:10DA400002204BE0C068CB78072B57D89B002C4AAC
:10DA5000D3589F462A780E231340022B03D0036825
:10DA60000193122032E0C368019312202EE08B78DC
:10DA7000AE22AA5C9A4210D9B022AA589B009B58A9
:10DA8000002B0AD001939A78D8780002104325E041
:10DA90002A7870231340102B2ED00121280002F089
:10DAA0003EFC29E02A7870231340102BF5D1023B6D
:10DAB0001A40022A03D0436A01930A2006E0036A4F
:10DAC00001930A2002E001AA01F06AF901990029F4
:10DAD00005D1E2E70300AD33019301200199A2795A
