S214008000F07F002015070100DFEC000067F100009C
S214008010000000000000000000000000000000005B
S214008020000000000000000000000000B7E90000AB
S2140080300000000000000000B7E90000351E010047
S214008040B7E90000B7E90000B7E90000B7E90000AB
S214008050CD060100B7E90000B7E90000F51D0100F4
S214008060B7E900008DAE00002DC70000C5B20000C5
S21400807011BC0000B7E90000A9B00000B7E9000095
S214008080B7E90000B7E90000F11601001517010076
S214008090391701000000000000000000B7E90000EA
S2140080A0B7E90000B7E90000B7E90000B7E900004B
S2140080B0F8B5C046F8BC08BC9E467047AD06010041
S2140080C0F8B5C046F8BC08BC9E4670478506010059
S2140080D0A03E000001000000C44300201C00000079
S2140080E000000000CC360020340100000000000034
S2140080F03C41002040000000000000007C410020C1
S2140081004000000000000000FC420020300000009C
S21400811000000000084000205000000001000000A1
S21400812029140100991D0100051E0100C51E01004D
S214008130D31E0100AB1D01002519010069F10000E6
S21400814015C1000035C400009DD80000E5CF000032
S214008150111101003116010025A1000065EA00009A
S214008160A9EB0000151E010033C40000000000004B
S214008170EC380020C0000000000000002C43002067
S2140081802C00000000000000A73F002001000000B7
S21400819000000000584300202C00000000000000F3
S2140081A0703B00208000000000000000F03B002034
S2140081B08000000000000000BC41002040000000DD
S2140081C000000000703C002080000000000000005E
S2140081D0F03C00208000000000000000FC41002071
S2140081E04000000000000000703D002080000000FD
S2140081F000000000F03D00208000000000000000AD
S2140082003C42002040000000000000000C4400201B
S21400821008000000000000001444002008000000D1
S214008220000000001C4400200800000000000000C1
S21400823000380020EC00000000000000703E002027
S2140082406C00000000000000F84000204400000021
S21400825000000000004400200A00000000000000AB
S2140082606C44002002000000000000002C440020A7
S2140082700400000000000000244400200800000065
S2140082800000000030440020040000000100000050
S214008290FFFFFFFFCC3000200002000000000000BF
S2140082A03444002004000000000000003844002091
S2140082B004000000000000007C4200204000000097
S2140082C000000000CC320020000200000000000089
S2140082D0CC3400200002000000000000AC39002072
S2140082E0B8000000000000008443002020000000CA
S2140082F000000000E0430020100000000000000026
S21400830000000020A00F0000000000003C440020F9
S2140083100400000000000000EC3A0020840000008A
S21400832000000000F04300201000000000000000E5
S214008330BC42002040000000000000001C2C002072
S214008340B004000000000000A00F0020D0070000CE
S2140083500000000040440020040000000000000070
S21400836070170020D007000000000000DC3E002050
S2140083706C00000000000000064000200100000025
S2140083800000000007400020010000000000000080
S2140083904444002004000000000000004844002080
S2140083A004000000000000000A4400200100000055
S2140083B000000000401F0020D00700000000000062
S2140083C0102700200C05000001000000B10E01007F
S2140083D0B10E0100B10E0100B10E0100B10E010098
S2140083E0B10E0100B10E0100B10E0100B10E010088
S2140083F0B10E0100B10E0100B10E0100B10E010078
S214008400B10E0100B10E0100B10E0100B10E010067
S214008410B10E0100B10E0100391F0100ED17010079
S214008420391F0100391F0100391F01004D0F0100DF
S214008430391F0100391F0100391F0100391F0100D3
S214008440391F0100391F010091150100391F010075
S214008450391F0100391F0100391F0100391F0100B3
S214008460391F0100391F01007D0C0100391F010072
S214008470391F0100391F0100391F0100391F010093
S214008480391F0100391F0100391F0100391F010083
S214008490391F0100391F0100391F0100391F010073
S2140084A0391F0100391F0100391F0100391F010063
S2140084B0391F0100391F0100E50E0100391F0100B8
S2140084C0391F0100391F0100391F0100391F010043
S2140084D0391F0100391F0100391F0100391F010033
S2140084E0391F0100391F0100391F0100391F010023
S2140084F0391F0100391F0100391F0100391F010013
S214008500391F0100391F0100190F01004D0F01002E
S214008510810F0100391F0100391F0100391F0100BA
S214008520391F0100391F0100391F0100391F0100E2
S214008530391F0100391F0100391F0100391F0100D2
S214008540391F0100391F0100391F0100391F0100C2
S214008550391F0100391F0100391F0100391F0100B2
S214008560110E0100391F0100391F0100391F0100DB
S214008570391F0100391F0100391F0100391F010092
S214008580391F0100391F0100391F0100391F010082
S214008590391F0100391F0100391F0100391F010072
S2140085A0391F0100391F0100391F0100691A010037
S2140085B0391F0100391F0100391F0100391F010052
S2140085C0391F0100391F0100391F0100391F010042
S2140085D0391F0100391F0100391F0100391F010032
S2140085E0391F0100391F0100391F0100391F010022
S2140085F0391F0100391F0100FD080100391F010065
S214008600391F0100391F0100391F0100391F010001
S214008610391F0100391F0100391F0100391F0100F1
S214008620391F0100391F0100391F0100391F0100E1
S214008630391F0100391F0100391F0100391F0100D1
S214008640391F0100391F0100A5120100391F010062
S214008650D1120100391F0100FD120100391F01006F
S2140086604D0F0100391F0100391F0100391F01009D
S214008670391F0100391F0100391F0100391F010091
S214008680391F0100391F0100391F0100391F010081
S214008690391F0100391F010011180100391F0100A0
S2140086A035180100391F010091150100391F01001E
S2140086B0391F0100391F0100391F0100391F010051
S2140086C0391F0100391F0100391F0100391F010041
S2140086D0391F0100391F0100391F0100391F010031
S2140086E0391F010059050100391F01005905010015
S2140086F0391F010059050100391F0100391F01000B
S214008700391F0100391F0100391F0100391F010000
S214008710391F0100391F0100391F0100391F0100F0
S214008720391F0100391F0100391F0100391F0100E0
S214008730391F0100391F0100391F0100391F0100D0
S214008740410C0100391F0100391F0100391F0100CB
S214008750391F0100391F0100391F0100B10E010049
S214008760ED1701007D0C0100E50E0100190F010058
S2140087704D0F0100391F0100391F0100391F01008C
S214008780391F0100391F0100391F0100391F010080
S214008790291C0100391F0100391F0100391F010083
S2140087A0391F0100391F0100391F0100391F010060
S2140087B0391F0100391F0100391F0100391F010050
S2140087C0391F0100391F0100391F0100391F010040
S2140087D0391F0100391F0100391F010085190100EA
S2140087E0391F0100391F0100391F0100391F010020
S2140087F0391F0100391F0100391F0100391F010010
S214008800391F0100391F0100391F0100391F0100FF
S214008810391F0100391F0100391F0100391F0100EF
S214008820391F0100391F0100391F0100391F0100DF
S214008830391F0100391F0100391F0100391F0100CF
S214008840391F0100391F0100391F0100391F0100BF
S214008850391F0100391F0100391F0100391F0100AF
S214008860391F0100391F0100391F0100391F01009F
S214008870391F0100391F0100391F0100391F01008F
S214008880391F0100391F0100391F0100391F01007F
S214008890391F0100391F0100391F0100391F01006F
S2140088A0391F0100391F0100391F0100391F01005F
S2140088B0391F0100391F0100391F0100391F01004F
S2140088C041150100391F0100391F0100391F010041
S2140088D0391F0100391F0100483F00205F000000DB
S2140088E0010000000D0A4C3A4C4544207465737430
S2140088F0200909090920200D0A493A4750494F28FE
S214008900696E2920200909090920200D0A4F3A47D7
S21400891050494F286F757429200909090920200D30
S2140089200A4D3A4D4154636F72655465737420095D
S21400893009090920200D0A463A466C617368546599
S21400894073740000A83F00205E00000001000000D5
S214008950504F5354202F20485454502F312E310D51
S2140089600A486F73743A6265616D2E736F72616345
S2140089706F6D2E696F0D0A436F6E74656E742D549D
S2140089807970653A6170706C69636174696F6E2F97
S2140089906A736F6E0D0A436F6E74656E742D4C6548
S2140089A06E6774683A202020200D0A0D0A00000029
S2140089B00B44002001000000010000000100000040
S2140089C04C4400200400000000000000504400203A
S2140089D004000000000000005444002004000000D2
S2140089E000000000584400200400000000000000C2
S2140089F05840002050000000000000005C440020AA
S214008A000400000000000000A44300202000000036
S214008A10010000005665722030302E3230200000F3
S214008A200000000000000000000000000000000041
S214008A3000000000643A00208800000000000000EB
S214008A40604400200400000000000000A840002051
S214008A5050000000000000006444002004000000F5
S214008A600000000068440020040000000000000031
S214008A700000000000000000817957616B65817A74
S214008A800D0A00008179536C656570817A0D0A00C5
S214008A904154245645520D00415424494D45490D34
S214008AA0000000004154244E554D0D0041542453FF
S214008AB0455441504E2C736F7261636F6D2E696F13
S214008AC02C736F72612C736F72612C5041500D00C5
S214008AD04154245345545345525645522C626561C1
S214008AE06D2E736F7261636F6D2E696F2C38383818
S214008AF0380D0000415424434F4E4E4543540D005C
S214008B00415424434F4E4E4543543F0D0000000051
S214008B1041542454494D450D000000004154245250
S214008B205352500D415424525352510D4154245225
S214008B305353490D41542453494E520D0000000032
S214008B404154244F50454E0D00000000415424442B
S214008B504953434F4E4E4543540D00002530326472
S214008B602F253032642F2530326420253032643A87
S214008B70253032643A253032640000004552524FA8
S214008B80520D00004D4154434F524520524541443A
S214008B90590D0000245645523A000000244E554D0B
S214008BA03A0000003831000024494D45493A00009B
S214008BB00D4F4B0D000000004F4B0D0024434F4E51
S214008BC04E4543543A310D0024434F4E4E454354D0
S214008BD03A300D002454494D453A32002453494E4C
S214008BE0523A0000244F50454E0D00002452454393
S214008BF0560D0000415424524543562C3130323431
S214008C000D00000024434C4F53450D0024534C45A3
S214008C1045500D002457414B4555500D00000000AF
S214008C202452454356444154413A0000220D000068
S214008C3081790000817A0D0A00000000908588B3D3
S214008C400000000097AC97CA000000006D5E332F4E
S214008C50686F7572000000003434303130333235BE
S214008C6036343937383539003831323030313030F3
S214008C70333430343238360030312E303400000091
S214008C807B22436F6E666967223A7B00224C6F67D1
S214008C9067657253657269616C4E6F223A25642C63
S214008CA00000000022496E74657276616C223A25D7
S214008CB0642C000022526570726F74496E7465727F
S214008CC076616C223A25642C0000000022496E74FE
S214008CD0657276616C416C657274223A25642C006C
S214008CE022526570726F74496E74657276616C415B
S214008CF06C657274223A25642C0000002253656C61
S214008D006563745F636831223A25642C00000000B6
S214008D10225570706572305F636831223A25642C84
S214008D2000000000224C6F776572305F6368312266
S214008D303A25642C0000000022416C65727453775B
S214008D405F55325F636831223A25642C00000000CC
S214008D50225570706572325F636831223A25662C40
S214008D600000000022416C65727453775F55315FD6
S214008D70636831223A25642C00000000225570708A
S214008D806572315F636831223A25662C0000000068
S214008D9022416C65727453775F4C315F6368312291
S214008DA03A25642C00000000224C6F776572315F14
S214008DB0636831223A25662C00000000226C65723A
S214008DC07453775F4C32315F636831223A25642CE6
S214008DD00000000022416C65727453775F4C325F6E
S214008DE0636831223A25642C00000000224C6F771D
S214008DF06572325F636831223A25662C00000000F7
S214008E00226561737572655F636831223A22257345
S214008E10222C00002265614B696E645F6368312214
S214008E203A222573222C000022436861747465720E
S214008E30696E675F636831223A25642C0000000083
S214008E402253656C6563745F636832223A25642C2E
S214008E5000000000225570706572305F6368322231
S214008E603A25642C00000000224C6F776572305F54
S214008E70636832223A25642C0000000022416C65AB
S214008E80727453775F55325F636832223A25642CDA
S214008E9000000000225570706572325F63683222EF
S214008EA03A25642C0000000022416C6572745377EA
S214008EB05F55315F636832223A25642C000000005B
S214008EC0225570706572315F636832223A25642CD1
S214008ED00000000022416C65727453775F4C315F6E
S214008EE0636832223A25642C00000000224C6F771B
S214008EF06572315F636832223A25642C00000000F8
S214008F0022416C65727453775F4C325F636832221D
S214008F103A25642C00000000224C6F776572325FA1
S214008F20636832223A25642C00000000224D6561F9
S214008F30737572655F636832223A222573222C00AD
S214008F40224D65614B696E645F636832223A222562
S214008F5073222C002243686174746572696E675FC1
S214008F60636832223A2564007D7D00004C656E679A
S214008F7074683A20202020002564000041542453C1
S214008F80454E442C22000000525352503A00000036
S214008F90525352513A000000525353493A000000CF
S214008FA053494E523A0000007B2253746174757325
S214008FB0223A7B0022494D4549223A25732C00006F
S214008FC0224D534953444E223A25732C000000008C
S214008FD02256657273696F6E223A25732C00000064
S214008FE0224C544556657273696F6E223A25732C6F
S214008FF0000000002245787443656C6C507772312F
S214009000223A25662C0000002245787443656C6C75
S21400901050777232223A25662C0000002242617494
S2140090207431557365223A25642C0000224261741F
S2140090307432557365223A25642C0000225253522E
S21400904050223A25642C00002252535251223A25CF
S214009050642C00002252535349223A25642C000007
S2140090602253494E52223A25642C00002254656D44
S21400907070223A25662C00002254785479706522B6
S2140090803A2566007B225265706F7274223A7B0026
S2140090902254696D65223A25732C00002256616CB5
S2140090A075655F636831223A25662C002256616C2E
S2140090B075655F636832223A25662C0022416C652E
S2140090C07274223A256325632C0000004C6E3D0026
S2140090D020526D3D00000000666F726D6174206561
S2140090E07272340D0A000000666F726D617420653E
S2140090F07272310D0A000000526563765265743D47
S214009100000000000D0A436F72653E004154245370
S214009110455441504E2C736F7261636F6D2E696FAC
S2140091202C736F72612C736F72612C434841500D23
S21400913000000000554152543C3D3E4D4154636F83
S2140091407265204D4F4445210D0A000041542443CA
S2140091504C4F53450D0000004D73673D0000000066
S214009160415424525352500D0000000041542452E2
S2140091705352510D00000000415424525353490DE0
S2140091800000000041542453494E520D00000000D8
S2140091904154245345545345525645522C6B6172E4
S2140091A07567616D6F736F66742E64646F2E6A7078
S2140091B02C393939390D0000537461743D000000B4
S2140091C06964783D000000004C6F674F6E0D0A0022
S2140091D04C6F674F66660D0A000000000D0A444C8F
S2140091E0433E00005265616420494F28312D3729DF
S2140091F03D3E00004C454428312D33293D3E0000BD
S214009200313A4F6E20323A4F666620333A426C69E6
S2140092106E6B3D3E000000000D0A4E756D3D3E0033
S214009220416464726573733D307838303030204561
S2140092307261736564210D0A0000C046F0B5DE4613
S21400924057464E464546E0B585B005004378002BA8
S21400925000D100E3836B002B00D1FCE2446AA38BB1
S2140092609B0505D5238B9B0502D580239B00A383F6
S214009270A38BDB0505D5238BDB0502D580235B009E
S214009280A383A38B1B0604D5238B1B0601D5802343
S214009290A383A38B5B0604D5238B5B0601D54023F3
S2140092A0A383A38B9B0604D5238B9B0601D5202383
S2140092B0A383A38BDB070DD5238BDB070AD50123FE
S2140092C0A383A3820F33A383238300220421686B26
S2140092D0AB6B9847A38BDB060DD5238BDB060AD535
S2140092E01023A383A3820F3BA3832383002203219F
S2140092F0686BAB6B9847A38B5B0709D5238B5B0723
S21400930006D50423A38300220721686BAB6B98471E
S214009310A38B1B0702D5238B1B0735D40823FF33EB
S214009320E35CDB065DD50A23FF33E35CDB0658D53A
S2140093306E6CF37902229343F371F37B9343F373DA
S2140093403768002F47D0296D0632386808F03FFD91
S2140093500823FF331022E254033B3032E2543A68CB
S2140093609179D3791B020B432AD121330722EA5481
S21400937002233B7206337B60BB693360FB68002BBD
S2140093802FD0380098472CE021230022EA54237B74
S2140093901B079B0F984AD25C3023EA5428005030B3
S2140093A06022002108F076FDAB6B002B03D0002274
S2140093B00221686B98478023A372783BA383ADE7AE
S2140093C013787F2B03D821230222EA54D0E72123E7
S2140093D00622EA54CCE721230122EA54E7330F326F
S2140093E0E2540823FF33E35C9B0737D50A23FF3399
S2140093F0E35C9B0732D56B6C9E68002E2ED0212234
S214009400AA5C082A1AD0316A002971D1327C51B27E
S21400941000295DDB21220521A95400223272B2699F
S2140094209A60F368002B01D0300098470823FF337A
S2140094300222E254033B3E32E2540FE00022212196
S2140094406A543272B16999607260F368002B01D079
S214009450300098470823FF330222E2540823FF33E4
S214009460E35CDB0700D4A3E00A23FF33E35CDB07FF
S21400947000D49DE06B6C98462123EB5C052B59D0FD
S21400948043461E68002E74D06F6DBF04BF0C306A52
S21400949073683A189A4201D91F1ABFB2296D336809
S2140094A09C4660443A0008F092FC336AFB1833622C
S2140094B07268934264D241468988B94260D8822352
S2140094C05B004022E2540823FF333F3AE2546FE049
S2140094D07F231A4032746B6E9B0B9B036B660823CC
S2140094E0FF330222E2540623FF337E32E254B5E70E
S2140094F09F89B94200D88FB2286E7368591A3368AC
S2140095009C4661443A0008F062FC336ADB1B336217
S2140095106B6E9B0B9B036B666B6EBF04BF0C1F438F
S2140095206F660823FF330222E2540623FF337E329F
S214009530E25493E743461868002813D000230372CA
S2140095402122AB540822FF320121A154033A3F31B5
S214009550A1544246816911604360C368002B27D03E
S214009560984725E021230422EA54E733033AE254DD
S2140095701EE021230322EA54E733023AE25417E0BE
S21400958093429B415B42337221230722EA5408230D
S214009590FF33063AE254033B3F32E2544346B26995
S2140095A01A60336A7360F368002B01D03000984766
S2140095B0012601239B460827FF3707339A4649E0D2
S2140095C07F22134003744346EA18536E9B0B9B039B
S2140095D053660A234A46D3550623FF33802249465C
S2140095E0CA5434E0009B5B01E3180933FF330A32A8
S2140095F01A704B46DA552AE0781F0100019B9B89BA
S214009600994200D88BB24268511A02689446614467
S2140096104246AA181166016AC91A0162516E890B80
S21400962089035166516E9B049B0C0B4353660A23B9
S2140096304A46D355009B5B01E3180A33FF331A00F2
S214009640022313700623FF3380224946CA5401368C
S214009650032E73D0238C9BB2009633415946194291
S214009660F5D07301E3180A33FF331B78DBB203939C
S21400967073019846A146C1444B46DB5DDBB20293BC
S214009680029B5146194212D0039B19420FD0434603
S214009690EB186A331B789B0709D54346EB186A33E9
S2140096A01A7802218A431A704B465246DA55029BB4
S2140096B09B07CCD5039B9B07C9D52B004433B20030
S2140096C09B58019398680028C1D0016A002995D15B
S2140096D0037C5AB2002A00DA72E700230372019B69
S2140096E082699A60C368002B00D09847019B9A68ED
S2140096F0002A00D176E7106A019B9B89984200D821
S21400970083B25168081A11688C466044414669184D
S2140097100866106AC01A10624A6E920B92034A6676
S2140097204A6E9B049B0C13434B660A234A46D3554A
S2140097300623FF3380224946CA5488E7023E0123A7
S21400974099460823FF339A4621E0002303725B46BE
S21400975082691A60036A4360C368002B00D098478A
S2140097605B461B68002B6CD01A687F01EB191A65E4
S2140097700523424651465354E7190A37FF373B70D4
S214009780FF3340224146CA540136032E63D0238C51
S2140097909BB2370033414A461A42F5D07301E318AC
S2140097A00A33FF331B78DBB2039373019846A04459
S2140097B0434652469B5CDBB20293029B04221A424B
S2140097C010D07301EB185A331B789B0706D573012C
S2140097D0EB185A331A7802218A431A7043465246C7
S2140097E004219954029B4A461A42CDD0039B1A4242
S2140097F0CAD02B004433B2009B589B4618680028FA
S214009800C2D07B01EB185B6D9B049B0C026A9A1816
S214009810026241688A4298D25946898899420DD890
S21400982003689A187F01EF193A65052342465146A8
S2140098305354FF3340224146CA54A5E74B460372B1
S21400984085E77F01E7190937FF3705223A70434657
S21400985051465A5498E705B03CBC90469946A246F5
S214009860AB46F0BDF0B599B011930B681390099311
S2140098704B680D9105938B680A930B691693CB681A
S21400988003931368089353680898079300220023ED
S214009890079907F0FBF800280BD1099B5B073BD420
S2140098A00823099A1A400A9B0B9204930FD0202390
S2140098B006E0802212069446079B634407932D23F6
S2140098C0039A13700A9B013B049301230B930B9995
S2140098D0079B8C46039A089962445B0010925B08CB
S2140098E0C04A00291AD1934218D1119BBE4C413B65
S2140098F02100192B00D9211D109808F023FB201DEC
S21400990008F0D0FA099B0200009303990A9B13986B
S21400991005F0E6FE19B0F0BD2B23D1E7934203D83D
S21400992011D1089B002B0ED0119BAF4C413B210060
S214009930192B06D80831109808F004FB20000C30CC
S214009940DEE70C31F7E7002200230898079907F0B6
S214009950AFFB0026A54F002833D0002302931198B2
S21400996008F0C5FAC3B20C93059B002B00DACAE1D7
S2140099700C9B0693672B00D045E1059B002B00D17E
S214009980BCE1029B043304DB029B059A934200DA97
S21400999034E165234DE126002F00029B013302933C
S2140099A00022934B3000390002F09AFC089A079B7D
S2140099B004000D0007F04AF80028ECD0002401252A
S2140099C024E00290ECE7029B1A008A4B9A4212DAD5
S2140099D0002C10D10022884B0898079902F080FCD2
S2140099E000220890079130003900834B02F078FC83
S2140099F02C0006000F007E4B30003900002204F0D9
S214009A0051FD06000F00029B013B029332003B0013
S214009A100898079907F03AF80028D4D19FE7320053
S214009A203B0008980E9904F03DFD04F011FF1490D9
S214009A30159107F0D9FA1022099B1340034300D072
S214009A4090E00C9B672B00D08CE0002C00DB9AE0AB
S214009A5001358020000684460E99089A61440B0062
S214009A60149815990092019332003B0008F022FAF0
S214009A7080231B06CB1808900E9330003900002276
S214009A805B4B04F00FFD06000F00013C059B129394
S214009A90179B9C4206D00D9B059A1B691493053BA9
S214009AA09342BCD8079B002B09D1099BDB0606D541
S214009AB0059B039A013305932E2312995354059A56
S214009AC000259446039B634407931D70069B652BF5
S214009AD02ED1169B5C1E039B1D55029BAB4202DAE1
S214009AE05B420293013503260A27169BF61A029B51
S214009AF0002B60D13319002B5DDC621E2D23002D58
S214009B0000D1023B0399023C8B54119B413B192B1D
S214009B1001D845230693039B1919069B0B70049BDB
S214009B20023B0493059BA34202DA079808F00AFA60
S214009B300323099A1340022B12D1049B002B0FDD3E
S214009B40039808F0AFF9039B049A9B180B9A82427D
S214009B5042DD049A3021109808F09CF900230A93FD
S214009B600398CDE6079B002B0DD1002C0BDA059B46
S214009B70039A01330593049B1299013B04932E2309
S214009B8053542D3B0793059B3021EA18944602E078
S214009B90039AD15401339C45FAD16246059B303076
S214009BA001335B190593049B013B5B1B0493039BEA
S214009BB0002598544DE70298390001F077FD039B85
S214009BC03031013C19550298390001F089FC049B9C
S214009BD00290013B04938AE7039A125C1A540138F8
S214009BE0B4E7C0460000F07F841E01000000F03F8E
S214009BF000002440D4FEFFFF00005043029B002BD1
S214009C0016DA66230693059B01330593069B662B9F
S214009C1010D1029B002B03DA002300263D4F02934F
S214009C200C9B672B04D0029A059B944663440593CD
S214009C306623069300230E960F97089C079D1293A3
S214009C400E9A0F9B2000290004F02CFC04F000FE66
S214009C501490159107F0C8F98021220009066B18A8
S214009C60179000920193149815990E9A0F9B08F07E
S214009C7021F980231B06CD180022274B04000E98DE
S214009C800F9904F00FFC129B0E900F910133129364
S214009C90129A059B9342D3D10022204B02F020FB60
S214009CA00E900F9102000B002000290006F0EEFE39
S214009CB000280AD10E9A0F9B2000290007F0F8F919
S214009CC0002806D0179BDB0703D4002300240E933E
S214009CD00F940E9A0F9B0898079901F0B5FE069B05
S214009CE008900E91029C652B00D100240025059B50
S214009CF00795E31A17930B9B0593C7E60123059375
S214009D003FE60623FBE70C9B672BFAD00693062359
S214009D10059378E70000F03F000024400000144060
S214009D20F0B58DB0F14CF249200008F00BF9200098
S214009D3008F0B8F80019EF4E370008370C22390043
S214009D4008F045F8EC4D310014312A68684607F0F3
S214009D50A7FF6946200007F0AEFF31002C316A6885
S214009D60684607F09DFF6946200007F0A4FF310013
S214009D703C31AA68684607F093FF6946200007F062
S214009D809AFF31005431EA68684607F089FF694651
S214009D90200007F090FF310068312A69684607F016
S214009DA07FFF6946200007F086FFD44E311D6A69A2
S214009DB0684607F075FF6946200007F07CFF310013
S214009DC01831AA69684607F06BFF6946200007F05D
S214009DD072FF31002C31EA69684607F061FF694678
S214009DE0200007F068FF310040312A6A684607F015
S214009DF057FF6946200007F05EFF686A06F0C2FD5E
S214009E0002000B0031005831684607F049FF6946EA
S214009E10200007F050FF31006C31AA6A684607F050
S214009E203FFF6946200007F046FFE86A06F0AAFDF5
S214009E3002000B00B24E311D684607F031FF69463E
S214009E40200007F038FF310018312A6B684607F00B
S214009E5027FF6946200007F02EFF686B06F092FD8C
S214009E6002000B0031003031684607F019FF6946E2
S214009E70200007F020FF31004431AA6B684607F047
S214009E800FFF6946200007F016FF31005C31EA6BD1
S214009E90684607F005FF6946200007F00CFF286CAF
S214009EA006F070FD02000B0031007431684607F0C2
S214009EB0F7FE6946200007F0FEFE2A004432914E67
S214009EC031000831684607F0EBFE6946200007F0CF
S214009ED0F2FE2A00543231001C31684607F0E0FEDC
S214009EE06946200007F0E7FE310030316A6E6846AA
S214009EF007F0D6FE6946200007F0DDFE3100483147
S214009F00AA6E684607F0CCFE6946200007F0D3FE2E
S214009F1031005C31EA6E684607F0C2FE69462000F2
S214009F2007F0C9FE310070312A6F684607F0B8FEA8
S214009F306946200007F0BFFE734E311D6A6F684603
S214009F4007F0AEFE6946200007F0B5FE31001C3172
S214009F50AA6F684607F0A4FE6946200007F0ABFE2D
S214009F6031003031EA6F684607F09AFE69462000F5
S214009F7007F0A1FE8023EA5831004831684607F012
S214009F808FFE6946200007F096FE8423EA583100CB
S214009F905C31684607F084FE6946200007F08BFEB9
S214009FA08823EA5831007431684607F079FE69461E
S214009FB0200007F080FE8C23EA58544E310008310A
S214009FC0684607F06DFE6946200007F074FE902391
S214009FD0EA5831002031684607F062FE69462000E4
S214009FE007F069FE2A00943231003431684607F0E3
S214009FF057FE6946200007F05EFE2A00A4323100B4
S21400A0004831684607F04CFE6946200007F053FECC
S21400A010B423EA5831005C31684607F041FE6946D1
S21400A020200007F048FE200007F03CFF0019310032
S21400A0307031032207F0CBFE7D21200007F098FE4A
S21400A04005003900200007F06FF92D1A68D42F4953
S21400A0507431264807F068F90400AA1C2C496846A3
S21400A06007F01EFE6B461A78002A07D00023073436
S21400A070E25401336A469A5C002AF9D11B4C200050
S21400A08007F0EAFD07F0EEFE224A214B043303CB2D
S21400A09003C21B88138000236A4693702478002C22
S21400A0A016D01D4D0F271B4E200907F0EBFC6B4604
S21400A0B018702000384007F0E5FC6B46587069467B
S21400A0C0300007F0F8FD01356B1E1C78002CEBD134
S21400A0D0104C200007F0E6FE001910490322343128
S21400A0E007F075FE200005F083FA19E0401F0020F7
S21400A0F0A83F0020788C0000AC390020F88C0000C7
S21400A100788D0000F88D0000788E0000F88E000034
S21400A110788F000070170020411F0020F88B000089
S21400A1200DB0F0BDF8B5DE4657464E464546E0B59E
S21400A130040015000F270F404EB2431E033300D90C
S21400A140C2E10823D356022B00DDC0E1022F00D95E
S21400A150C0E1436A98463B0010339B00C318596819
S21400A1603211082313408A469A445346DB79DB07AC
S21400A17000D4B2E16B68994653469988484603F086
S21400A18079FA00294CD0002E00DBA9E1E378002BF9
S21400A1904CD00023AB6103332B72002399466968C9
S21400A1A0296253461A68002A00D072E104232B72F3
S21400A1B00023EB6153461D60002F00D02BE1002EDC
S21400A1C000DAE8E02123E35C032B6AD0042B00D1FD
S21400A1D0C7E0012B00D061E1216D0832286807F046
S21400A1E0F6FD82235B0040224146CA54F43B082217
S21400A1F0FF328B540A22FF328B542B689A79002A3E
S21400A20044D121230732E2545346AA691A60022336
S21400A2102B72EB68002B00D140E1280098473DE107
S21400A220002E0EDBE378002B00D05CE1A37B012B35
S21400A2301BD07F2040423CBC90469946A246AB4687
S21400A240F8BD2B7CDA0706D54A46002A03D08022C2
S21400A250524213432B74E378002BE7D00023AB6104
S21400A26003332B720023994699E700239B46A3737A
S21400A2700A20205606F0A8FC81465B46AB610333F5
S21400A2802B720021002E00DB8AE788E71B787F2BE5
S21400A29003D821230222E254B6E721230622E25401
S21400A2A0B2E7666DB604B60C286A6B6832189A4236
S21400A2B001D91E1AB6B2216D2B689C466044320046
S21400A2C007F085FD2B6AF3182B626A6893421BD34E
S21400A2D000232B7221330822E254203BFF324146F2
S21400A2E08B540A22FF328B540433FF33C93ACA54C4
S21400A2F02B6A6B605346AA691A60EB68002B00D184
S21400A300CCE028009847C9E053469B88B3421BD947
S21400A31001232B7221220821A1540822FF32414634
S21400A3208B540A22FF328B540433FF33C93ACA5483
S21400A3302B6A6B605346AA691A60EB68002B00D143
S21400A340ACE028009847A9E001230822FF324146E6
S21400A3508B540A22FF328B540433FF33C93ACA5453
S21400A3609CE000232122A3542B7201330822FF32E3
S21400A37041468B540A22FF328B540433FF33C93ACA
S21400A380CA545346AA691A60EB68002B00D185E0D0
S21400A3902800984782E02123E35C062B14D0072B85
S21400A3A07CD121230822E254636E9B0B9B036366D9
S21400A3B00223FF3241468B540A22FF328B54062377
S21400A3C0FF33893ACA5469E02B6A52469688B342EC
S21400A3D000D29EB2206E3200296807F0F8FC2B6A85
S21400A3E09B1B2B6221230922E254636E9B0B9B036B
S21400A3F06366626EB3049B0C1343636602230822F3
S21400A400FF3241468B540A22FF328B540623FF3319
S21400A410893ACA5442E0002E12DB29687B01E21812
S21400A42011651F00474405220821FF317A543B007E
S21400A4300A33FF331A7082235B003B32FA542DE056
S21400A440286A9B88984200D883B26A68101A2A68DD
S21400A450944660447A01A1180866286AC01A2862E1
S21400A460486E800B80034866486E9B049B0C034333
S21400A4704B66130043440A220821FF315A541F003A
S21400A4800A37FF373A700622FF328739995405E0BB
S21400A4901A009369002BFBD19561EA61E3780020EE
S21400A4A0002B00D0C7E64B46002B09D0A37A5AB241
S21400A4B0002A05DB1F221A40012393400D4A136031
S21400A4C00123A3730020B6E67D204042B3E67B203E
S21400A4D04042B0E67C204042ADE676204042AAE606
S21400A4E07D204042A7E60023AB6103332B72002396
S21400A4F0994655E600E100E070B586B0FA21C44DF5
S21400A500C4482B689C466044090104F07FFC0400A4
S21400A51005F05CFF2B689C4664442C60BE4BFF2213
S21400A5201A70062C5ED00D2C67DDBC490C31B9487C
S21400A53006F0FAFE002802D0B74B00221A70B74980
S21400A5401C31B44806F0F0FE002802D0B24B0222BE
S21400A5501A70142C54DDB1492431AE4806F0E4FEDE
S21400A560051E14D00D2107F003FC00280FD0002391
S21400A5700370AB48A94B1A002C329B8D038093784E
S21400A5808370A91D07F097FBA34B03221A70152CA6
S21400A59014DDA24930319F4806F0C6FE00280DD0D3
S21400A5A00D2107F0E5FB002808D000230370411DAD
S21400A5B09C4807F0C7FC984B03221A70944B1B6804
S21400A5C0032B2ED195494031924806F0ADFE002867
S21400A5D005D08F4B00221A608F4B04321A708C4BBA
S21400A5E01C6836E08D4904318A4806F09DFE002836
S21400A5F0AFD0894B01221A70ABE70A2CA9DD9EE783
S21400A600042CDBD185493831824806F08DFE0028BF
S21400A61007D07F4B00221A607F4B04321A7000244A
S21400A62017E07B4B1C68092C13DD7C4944317948C4
S21400A63006F07AFE002802D0774B05221A7077497A
S21400A6405031744806F070FE002802D0724B0B2280
S21400A6501A70172C4BDD71495C316E4806F064FEAB
S21400A660041E00D1F6E00D2107F082FB002800D181
S21400A670F0E0694B06221A7001AAA379303B9900D4
S21400A6805B185B00E17930395B181370637A303BF6
S21400A69099005B185B00A17A30395B185370237BF6
S21400A6A0303B99005B185B00617B30395B18937018
S21400A6B0E37B303B99005B185B00217C30395B18EC
S21400A6C0D370A37C303B99005B185B00E17C30398B
S21400A6D05B181371637D303B99005B185B00A17DAE
S21400A6E030395B1853710198029902F0B3FE484B5B
S21400A6F01B68242B00DDB1E0052B00DDBFE0444BDA
S21400A7001C68062C13DD48490C31424806F00CFE46
S21400A710002802D0404B09221A70434914313D48A4
S21400A72006F002FE002802D03B4B10221A70072CBF
S21400A7301DDD3D491C31374806F0F6FD002816D0D1
S21400A740354B08221A700E2C13DC30E03349743176
S21400A750304806F0E9FD0028D1D000232C4A1360CB
S21400A760324A13702D487C3004F042FFC7E70E2CA7
S21400A77019DD2848002303552B49283106F0D4FD5F
S21400A780002810D02221234807F0F2FA00280AD029
S21400A79025490230343106F0C7FD002803D01E4B91
S21400A7A00A221A7003E01C4B1B78FF2B26D001A848
S21400A7B006F000FC01A807F04FFA1B4C20003830CA
S21400A7C007F04AFA144E307807F06AF93A2007F094
S21400A7D0C9F9174D287807F063F920003C3007F0D8
S21400A7E03BFA32782978D3009B185B009B185B18DD
S21400A7F09B00104A9B58984706B070BD002006F094
S21400A800B3FE002818D0044B0C221A70CFE7C046BF
S21400A8103C440020000000200A440020788B000002
S21400A820F0430020E0430020F88B00000B4400209B
S21400A830074000201027002006F0BEFE012805D0A5
S21400A8400228D9D1144B0D221A70B0E7124B0C22F5
S21400A8501A70ACE7114B1B68242B10DD1048002241
S21400A860C2541049643106F05FFD002807D00D2160
S21400A87007F07EFA002802D0074B07221A70094913
S21400A8806C31074806F050FD002800D15EE7024B09
S21400A89008221A7033E7C0460A4400203C440020D1
S21400A8A000000020788B00000023F0B5060015009D
S21400A8B0AFB00591019305990B78002B00D10FE1FD
S21400A8C001235B420A930EAB00240C938023099469
S21400A8D00B940D930B5D002B01D0252B2AD1002C59
S21400A8E006D02200300006F0EFFE059B1B190593EC
S21400A8F0059B1A78252A00D0E7E0013302930593DA
S21400A900022310219C460827059803782B2B1BD082
S21400A91025D8202B1BD0232B1DD02A2B2AD006F07F
S21400A920D5F80B90059B1A78303A092A33D80133AC
S21400A9300593F7E70134CDE70122099B80180393BE
S21400A940134309930590DFE70423099A0EE0099B59
S21400A95003933B430BE0099B03930B4307E02D2B2C
S21400A960EAD0302BD9D16246099B0393134309934F
S21400A9700130E7E72B6801301A1D1B6805902A6036
S21400A9800B93002B07DA099A5B4203920122039984
S21400A9900B934A400992099BDA0702D50222934399
S21400A9A00993059B1A782E2A0ED10022581C0A926B
S21400A9B005905A782A2A28D1023305932B681A1D47
S21400A9C01B682A6003930A9305A806F027FB059BDD
S21400A9D00700187807F08BFA692800D183E035DC89
S21400A9E0632800D1D6E01BDC252800D1DFE06128F3
S21400A9F059D0252306AA1370029B059300230993BA
S21400AA000B93013B0A930233B2E006F05FF80A901C
S21400AA10059B1A78303A092AD6D801330593F7E70A
S21400AA20642860D06728E4DC2A00390006A806F00F
S21400AA30E5FC002800D1A9E0059B09A95A1C05924F
S21400AA401B7806AA3000FEF70DFF3DE0702800D107
S21400AA507DE016DC6E2800D191E06F28C9D12B006E
S21400AA600022390006A804F04FF8002800D18DE037
S21400AA70059B06AA013309A93000059304F04CFF94
S21400AA8022E0752840D078284FD07328B1D1802F87
S21400AA9000D07BE0059B2A6801330593131D2B60CD
S21400AAA01268002364E02A00390006A806F0A6FC17
S21400AAB0002800D16AE0059B09A95A1C05921B785C
S21400AAC006AA300007F062FA2418019B1C19A3425C
S21400AAD000DC74E04F223B4B1A6001235B4201937B
S21400AAE001982FB0F0BD2B000122390006A804F013
S21400AAF00BF800284AD0059B06AA013309A93000A6
S21400AB00059303F0FFFEDFE72B000022390006A8BE
S21400AB1003F0FAFF002839D0059B06AA013309A9DD
S21400AB203000059305F056FBCEE72B0000223900D7
S21400AB3006A803F0E9FF002828D0059B5A1C0592BA
S21400AB401B7806AA09A9300002F022F9BCE72B0000
S21400AB500022F02106A803F0D7FF002816D0059B98
S21400AB60079A01330593069B134306D1164A1632FD
S21400AB7009A9300005F052FCA6E77823E1E7019B1F
S21400AB8039001A1906A82B0004F0D2FF059B0133E2
S21400AB9005939AE7802FF9D1059B013305932B681F
S21400ABA01A1D1B682A6006AA13700123E0E7802F8F
S21400ABB0ECD1059B06AA013305931070F5E70194C6
S21400ABC079E6C046684400202C1B0100F0B58DB025
S21400ABD09E4E310010319E4C200005F0A1FA9D4D8E
S21400ABE0686531001831200005F09AFAA865310032
S21400ABF02031200005F094FAE86531002831200065
S21400AC0005F08EFA28669449944807F09BF92F1DA4
S21400AC109349380007F096F9924C9349200007F0C4
S21400AC2091F9200007F03EF900190C228F4907F031
S21400AC30CEF88F492A681431684607F031F869461D
S21400AC40200007F038F831003C313A00684607F03B
S21400AC5027F86946200007F02EF8310048317F4A71
S21400AC60684607F01DF86946200007F024F82A0019
S21400AC70243231005831684607F012F86946200041
S21400AC8007F019F82A00343231006831684607F0B8
S21400AC9007F86946200007F00EF8686C05F072FEAB
S21400ACA002000B0031007C31684606F0F9FF694669
S21400ACB0200007F000F8A86C05F064FE02000B0008
S21400ACC06C4E31001031684606F0EAFF69462000F7
S21400ACD006F0F1FF31002431EA6C684606F0E0FF2A
S21400ACE06946200006F0E7FF310034312A6D6846D9
S21400ACF006F0D6FF6946200006F0DDFF310044313D
S21400AD006A6D684606F0CCFF6946200006F0D3FF61
S21400AD1031005031AA6D684606F0C2FF6946200031
S21400AD2006F0C9FF31005C31EA6D684606F0B8FFF0
S21400AD306946200006F0BFFF310068312A6E68467B
S21400AD4006F0AEFF6946200006F0B5FF686E05F017
S21400AD5019FE02000B0031007431684606F0A0FFB1
S21400AD606946200006F0A7FFA86E05F00BFE02005D
S21400AD700B004149684606F093FF6946200006F03E
S21400AD809AFF200007F08EF800193C490322703124
S21400AD9007F01DF87D21200006F0EAFF0600334983
S21400ADA0200006F0C1FA361A4DD4344974312D48C5
S21400ADB006F0BAFA0400B21C2449684606F070FF92
S21400ADC06B461A78002A07D000230734E254013372
S21400ADD06A469A5C002AF9D1224C200006F03CFF15
S21400ADE007F040F8264A194B043303CB03C21B88EE
S21400ADF0138000236A4693702478002C16D0214DC9
S21400AE000F271F4E200906F03DFE6B4618702000E7
S21400AE10384006F037FE6B4658706946300006F03C
S21400AE204AFF01356B1E1C78002CEBD1144C200019
S21400AE3007F038F8001914490322343106F0C7FF2A
S21400AE40200004F0D5FB0DB0F0BDC046788F0000A2
S21400AE50BC420020DC3E0020F0430020F03E0020F4
S21400AE60E0430020401F0020A83F0020A88F0000DD
S21400AE70788C0000F88F000078900000F88E0000B4
S21400AE8070170020411F0020F88B0000F0B5DE464A
S21400AE9057464E464546E0B583B07F4B9B7D002B1C
S21400AEA000D1F1E07C4A137EDBB2927D52B2002ADA
S21400AEB018DB794A137EDBB2927DD20700D4D6E047
S21400AEC0DB0700D4D3E0754C754B9846734B1B6973
S21400AED09946724B187D704A01239B4607256B46A0
S21400AEE0991D30E05BB2002BE3DA6B4B5B8B0722DD
S21400AEF01340DED0694AD387674B80221A76793AA8
S21400AF005A831B7E5B0705D5634B04211A8D1A7E78
S21400AF100A42FBD1614B1B6A002BCAD05F4A516ABA
S21400AF2002209847C5E75F00BC4647466646BE5DBA
S21400AF300E70C444664676784E70013316E00B7881
S21400AF40138500281ED1137E5E46334200D18EE064
S21400AF50A3689C46E3689C4500D185E057682F406F
S21400AF60012FE0D04E4FFF5C0F7001334B45BF41C1
S21400AF703B404A4FFB6053682B40012BDFD10B88C8
S21400AF801385DEE706F0B8FE444B1B68002B9DD009
S21400AF90424A127F002A08D0404A9269904295D3CE
S21400AFA03E4A51680320984790E73C4A926990428F
S21400AFB08CD13A4A51680320984787E74246126A7E
S21400AFC0002A23D0696A01209047AB6A01332A6BB6
S21400AFD093429241134019E0304A926A31498C54A8
S21400AFE02E4A93623423D35C002B22D12A4B1B7E3D
S21400AFF05B0749D5284B1C8DA4B2B36A0133326B6C
S21400B000934292411340FA6A9A42D7D0234AD26AB0
S21400B0109A42EBD0204A516807220A40012ADBD127
S21400B0201E4A916A49001F4A54545218240A547002
S21400B030D6E706F0C5FC194B1B6A002BD6D017497D
S21400B0403C228A5C002A06D08A6B9042CED3496A9C
S21400B05000209847CAE7114A926B9042C6D10F4A21
S21400B060516A00209847C1E70B4B01221A750A4A1D
S21400B070137EDBB2927D520706D55B0704D5074EDA
S21400B0803700B0463500B1E703B03CBC9046994661
S21400B090A246AB46F0BDC04600080042BC410020B8
S21400B0A0F03B0020703B0020F0B5DE4657464E468B
S21400B0B04546E0B583B07F4B9B7D002B00D1F1E089
S21400B0C07C4A137EDBB2927D52B2002A18DB794AA4
S21400B0D0137EDBB2927DD20700D4D6E0DB0700D425
S21400B0E0D3E0754C754B9846734B1B699946724B6B
S21400B0F0187D704A01239B4607256B46991D30E054
S21400B1005BB2002BE3DA6B4B5B8B07221340DED07F
S21400B110694AD387674B80221A76793A5A831B7E10
S21400B1205B0705D5634B04211A8D1A7E0A42FBD1B4
S21400B130614B1B6A002BCAD05F4A516A02209847AF
S21400B140C5E75F00BC4647466646BE5D0E70C44413
S21400B150664676784E70013316E00B781385002825
S21400B1601ED1137E5E46334200D18EE0A3689C4615
S21400B170E3689C4500D185E057682F40012FE0D05A
S21400B1804E4FFF5C0F7001334B45BF413B404A4F6B
S21400B190FB6053682B40012BDFD10B881385DEE75D
S21400B1A006F0B4FD444B1B68002B9DD0424A127F2C
S21400B1B0002A08D0404A9269904295D33E4A516888
S21400B1C00320984790E73C4A926990428CD13A4ACD
S21400B1D051680320984787E74246126A002A23D020
S21400B1E0696A01209047AB6A01332A6B9342924109
S21400B1F0134019E0304A926A31498C542E4A9362C1
S21400B2003423D35C002B22D12A4B1B7E5B0749D507
S21400B210284B1C8DA4B2B36A0133326B9342924121
S21400B2201340FA6A9A42D7D0234AD26A9A42EBD09F
S21400B230204A516807220A40012ADBD11E4A916A39
S21400B24049001F4A54545218240A5470D6E706F090
S21400B250D3FB194B1B6A002BD6D017493C228A5CBD
S21400B260002A06D08A6B9042CED3496A00209847BF
S21400B270CAE7114A926B9042C6D10F4A516A002023
S21400B2809847C1E70B4B01221A750A4A137EDBB2B8
S21400B290927D520706D55B0704D5074E3700B046A9
S21400B2A03500B1E703B03CBC90469946A246AB4693
S21400B2B0F0BDC046001C0042FC410020F03C0020CF
S21400B2C0703C0020F0B5DE4657464E464546E0B593
S21400B2D083B07F4B9B7D002B00D1F1E07C4A137E30
S21400B2E0DBB2927D52B2002A18DB794A137EDBB2BB
S21400B2F0927DD20700D4D6E0DB0700D4D3E0754CAD
S21400B300754B9846734B1B699946724B187D704A6D
S21400B31001239B4607256B46991D30E05BB2002B48
S21400B320E3DA6B4B5B8B07221340DED0694AD38788
S21400B330674B80221A76793A5A831B7E5B0705D5BF
S21400B340634B04211A8D1A7E0A42FBD1614B1B6A9D
S21400B350002BCAD05F4A516A02209847C5E75F00B3
S21400B360BC4647466646BE5D0E70C4446646767862
S21400B3704E70013316E00B78138500281ED1137E1D
S21400B3805E46334200D18EE0A3689C46E3689C4547
S21400B39000D185E057682F40012FE0D04E4FFF5C6C
S21400B3A00F7001334B45BF413B404A4FFB6053682B
S21400B3B02B40012BDFD10B881385DEE706F0B0FCAF
S21400B3C0444B1B68002B9DD0424A127F002A08D0AF
S21400B3D0404A9269904295D33E4A51680320984766
S21400B3E090E73C4A926990428CD13A4A51680320D1
S21400B3F0984787E74246126A002A23D0696A0120E6
S21400B4009047AB6A01332A6B93429241134019E08E
S21400B410304A926A31498C542E4A93623423D35C64
S21400B420002B22D12A4B1B7E5B0749D5284B1C8D4F
S21400B430A4B2B36A0133326B934292411340FA6A64
S21400B4409A42D7D0234AD26A9A42EBD0204A516811
S21400B45007220A40012ADBD11E4A916A49001F4A88
S21400B46054545218240A5470D6E706F0E1FA194BE1
S21400B4701B6A002BD6D017493C228A5C002A06D0CD
S21400B4808A6B9042CED3496A00209847CAE7114A91
S21400B490926B9042C6D10F4A516A00209847C1E786
S21400B4A00B4B01221A750A4A137EDBB2927D5207B5
S21400B4B006D55B0704D5074E3700B0463500B1E722
S21400B4C003B03CBC90469946A246AB46F0BDC0468B
S21400B4D0001000423C420020F03D0020703D00205D
S21400B4E003460B437FD4002243088B4274D30309E0
S21400B4F08B425FD3030A8B4244D3030B8B4228D381
S21400B500030C8B420DD3FF22090212BA030C8B42A6
S21400B51002D31212090265D0030B8B4219D300E046
S21400B520090AC30B8B4201D3CB03C01A5241830BCB
S21400B5308B4201D38B03C01A5241430B8B4201D37B
S21400B5404B03C01A5241030B8B4201D30B03C01AA4
S21400B5505241C30A8B4201D3CB02C01A5241830A1E
S21400B5608B4201D38B02C01A5241430A8B4201D34D
S21400B5704B02C01A5241030A8B4201D30B02C01A77
S21400B5805241CDD2C3098B4201D3CB01C01A5241DE
S21400B59083098B4201D38B01C01A524143098B4267
S21400B5A001D34B01C01A524103098B4201D30B0150
S21400B5B0C01A5241C3088B4201D3CB00C01A524175
S21400B5C083088B4201D38B00C01A524143088B423A
S21400B5D001D34B00C01A5241411A00D201465241D3
S21400B5E0104670475DE0CA0F00D04942031000D3F2
S21400B5F04042534000229C4603098B422DD3030A47
S21400B6008B4212D3FC22890112BA030A8B420CD356
S21400B610890192118B4208D3890192118B4204D37F
S21400B62089013AD0921100E08909C3098B4201D3FF
S21400B630CB01C01A524183098B4201D38B01C01A39
S21400B640524143098B4201D34B01C01A52410309B0
S21400B6508B4201D30B01C01A5241C3088B4201D35F
S21400B660CB00C01A524183088B4201D38B00C01A0C
S21400B6705241D9D243088B4201D34B00C01A5241E3
S21400B680411A00D20146634652415B10104601D370
S21400B6904042002B00D54942704763465B1000D3FA
S21400B6A0404201B5002006F073FC02BD0029F8D028
S21400B6B016E770470D0A00002020202020202020BA
S21400B6C02020202020202020202020202020202075
S21400B6D020202020202020202020202020200000A5
S21400B6E00A0D00002020202020202020200000001E
S21400B6F044207B58585858585858582C585858581A
S21400B700585858587D200A0D000000000A0D532096
S21400B710585858582058580A0D0000000A0D57204F
S21400B72058585858585858582058585858585858CC
S21400B730580A0D000A0D4620585858585858585858
S21400B740205858205858585858585858580A0D00D5
S21400B7500D0A443A44756D70204D656D6F72792000
S21400B7602020207B20416464726573732053697ABD
S21400B77065207D2E2E4C6974746C6520456E646958
S21400B780616E0A0D00000000423A44756D70204D4F
S21400B790656D6F7279202020207B2041646472657D
S21400B7A073732053697A65207D2E2E426967204583
S21400B7B06E6469616E0A0D00533A5375627374695C
S21400B7C07475746520202020207B20416464726597
S21400B7D073732056616C75657D8140984191B19375
S21400B7E0FC97CD82CC8FEA8D8782CD8373838A8344
S21400B7F049836882C592868E7E0A0D00483A3136A5
S21400B80062697420496E2F4F7574204D656D6F7296
S21400B81079207B2041646472657373207D0A0D0075
S21400B820573A333262697420496E2F4F7574204D33
S21400B830656D6F7279207B20416464726573732036
S21400B8407D0A0D00463A46696C6C204D656D6F7238
S21400B85079202020207B2041646472657373205613
S21400B860616C75652053697A657D0A0D00000000DD
S21400B8705441423A486973746F72790A0D00C046A3
S21400B880F0B5D6464F464646C0B586B007006B4B69
S21400B8901B68002B00DCB8E000240026684D694BCE
S21400B8A02C33019327E0019806F0D6F9644B18680C
S21400B8B006F027F83A2006F055F9002F00D0AAE047
S21400B8C00421286805F0F8F9631C9946A4002B6843
S21400B8D01B6802AAA350202006F044F94B46042B0E
S21400B8E03BD04C460436564A136804331360534B19
S21400B8F01B68B3424ADD002CD5D0002FE0D0504B59
S21400B90099461B68186805F0FCFF631C9A46A4005D
S21400B9104B461B681B6802AAA350202006F022F99B
S21400B92053465446042BDDD102AB994606AB9A46E5
S21400B9304B4610CB9946200E06F014F92014C0B2E0
S21400B94006F010F92012C0B206F00CF9E0B206F0CC
S21400B95009F9CA45ECD10024C4E702AB994606AB08
S21400B9609A464B4610CB9946E0B206F0FBF82012FA
S21400B970C0B206F0F7F82014C0B206F0F3F8200EB6
S21400B98006F0F0F8CA45ECD10024ABE7002C3CD01A
S21400B990032C08DC25002B4E3036300006F05CF910
S21400B9A00135042DF9D1002C2BDD0026A300984686
S21400B9B013E002AB4246D558E8B206F0D3F8281298
S21400B9C0C0B206F0CFF82814C0B206F0CBF8280EA6
S21400B9D006F0C8F80136B44213D0002FE9D002AB07
S21400B9E04246D558280E06F0BDF82814C0B206F018
S21400B9F0B9F82812C0B206F0B5F8E8B206F0B2F808
S21400BA00E8E710482C3006F027F906B01CBC904634
S21400BA109946A246F0BD0A4B99461B68186805F081
S21400BA2070FF631C9A46A4004B461B681B6802AA5C
S21400BA30A350202006F096F8544653E750440020C2
S21400BA404C440020B4B60000F0B40125ED070F000A
S21400BA505F405AD48B4200D1824205D950404240C2
S21400BA60504059404B4059404E18760DDF187F0D18
S21400BA703BD0741C640529D0F41B352C26D80E0D3B
S21400BA80DB022B43DB0AC9022943C9121700202C0C
S21400BA901ED2E741E2405740E3415A40A340E3400C
S21400BAA05A400024801859410AD3B21C520521D0AE
S21400BAB0C207012F624117004008CB071843490808
S21400BAC0013636054208AF4160417141F0BC70470F
S21400BAD0203C06D01F00E741E3405F400024012AD7
S21400BAE06741C0186141EBD3DFE7002EEED1294055
S21400BAF00020EBE7013631050020E7E7E742E5D115
S21400BB000020C143090DC904E0E76B400E00871A08
S21400BB109E4104D26E40C01BB141D21973414E18EB
S21400BB20DF18AC0AE642E9D2760D7F0D31D0F41B61
S21400BB30362CCBD8B4460E0DDB022B43DB0AC902EB
S21400BB402943C90A012C32D804D1D4075208DF078A
S21400BB503A435B08EF0A6442904199411ED00022A6
S21400BB6039424DD12419404149410124394204D17A
S21400BB700134001849413942FAD06246A24204D93B
S21400BB80361B013E36058919A0E7F10AC9070020D1
S21400BB909CE736429AD10020002197E70200224314
S21400BBA094D0B842DED2010020002024E3D1202C1D
S21400BBB013DD203CE2411700A240E2405740E3413B
S21400BBC05A40A340E3405A40012FBF410137174374
S21400BBD000227C42984191410CE01700E741E24088
S21400BBE05740E3415A40A340E3405A407C429041CC
S21400BBF0994100220F0303D2013E241940414941D6
S21400BC00013E36054708AC4150417141F0BC7047D3
S21400BC1010B5694B9B7D002B17D0674B5B8B9B0742
S21400BC2014D5664B2022FF2199540132FD399954D0
S21400BC30624A2023D35C5BB2013300D18BE05F4ABB
S21400BC402023D35C062B00D19DE010BD5A4B5B8BA6
S21400BC50DB0707D5594B2022FF2199540132FD39C5
S21400BC609954E5E7544B5B8B5B0707D5534B202273
S21400BC70FF2199540132FE399954D9E74F4A2023BF
S21400BC80D35C5BB2032B44D0042B0FD0022BCFD156
S21400BC901369002B04D09088002104F0C7FAC7E788
S21400BCA0464B9888012104F0C1FAC1E7434A9369DC
S21400BCB0126993420CD0414A9168CC5C3E482821D8
S21400BCC04454013393610200D369002BFCD1AFE7E3
S21400BCD03A4B5B69002B0ED0384B9B885B000122E9
S21400BCE01343354A5362D369002BFCD1334A2033C1
S21400BCF00321D1549CE7304A5168C0239B020B4372
S21400BD005360D369002BFCD12C4A20330621D15432
S21400BD108EE72A4A5369013BD2699A420DD0264AD9
S21400BD20D369002BFCD1254AD36923482821415CDE
S21400BD30D068C1540133D3617AE71F4A5168E023C3
S21400BD40DB020B435360D369002BFCD11B4A203324
S21400BD500621D154E3E720230021D154164A516826
S21400BD60C0239B020B435360D369002BFCD1124BBC
S21400BD7083221A76114B5B6A002B00D165E70F4AC7
S21400BD80906A984761E71300002220215A54013137
S21400BD905A54094B83321A761900533A4B8B134088
S21400BDA0102BFBD1054B5B6A002B00D14DE7034AF5
S21400BDB0906A984749E7C046001400422C4300208A
S21400BDC0F8B55F4C0C345F4F5F4D5835FF262000AA
S21400BDD005F042FF05F004FC06F082F83040033818
S21400BDE05328F4D880003B589F465548143003F03B
S21400BDF0FFFBEBE752483C3005F02EFF03F0FAFD60
S21400BE00E4E752487C3003F0F3FBDFE75048543059
S21400BE1003F0EEFBDAE74A48543003F0E9FBD5E7D7
S21400BE204748603005F018FF05F03BFC05F008FFBA
S21400BE30CCE7464E30002C3003F0DAFB30002030E2
S21400BE4003F0D6FB4248183003F0D2FBBEE73C4E68
S21400BE503000683003F0CCFB3000743003F0C8FBD1
S21400BE60394E300003F0C4FB30000C3003F0C0FB4A
S21400BE70ACE73748483003F0BBFBA7E7324818303A
S21400BE8003F0B6FBA2E73148583003F0B1FB9DE75C
S21400BE90FDF746FF9AE72F487C3003F0A9FB95E7AD
S21400BEA0294E3000403005F0D7FE2B4B187805F0B1
S21400BEB0F7FD05F0D7FF4021284804F0FDFE3000CE
S21400BEC0483005F0C9FE264B187805F0E9FD05F068
S21400BED0C9FF7BE723490A78012353400B70012AE8
S21400BEE004D01948503005F0B7FE6FE7280005F07B
S21400BEF0B3FE6BE7FA2212010021184805F0CAFFCC
S21400BF00174B00221A6061E7134B64221A705DE734
S21400BF10154B1A780123534013490B70012A06D09B
S21400BF2080210022C900114805F0EEFF4EE70122ED
S21400BF3080215242C9000D4805F0E6FF46E7F8BDED
S21400BF40F890000098C8000078910000788A0000F9
S21400BF50F88A0000788B00000740002000000020D0
S21400BF603C4400200B440020064000208044004152
S21400BF70F0B557464E464546DE46E0B5040083B06B
S21400BF800D00924699468B4230D82DD049465046F1
S21400BF9005F07AFE29000600200005F075FE331A2B
S21400BFA09846203B9B4633D45A46534693404246D7
S21400BFB01F00534693401E00AF423AD8AF4200D10E
S21400BFC07BE05B46A41BBD41002B00DA78E0002234
S21400BFD000230092019301235A46934001930123C4
S21400BFE042469340009328E08242CFD900220023A5
S21400BFF0009201930C9B002B01D01C605D600098A2
S21400C000019903B03CBC90469946A246AB46F0BDAB
S21400C010424620239B1A5246DA40414613004A46BF
S21400C0208A40170042461F43534693401E00AF42C5
S21400C030C4D900220023009201934346002BD9D096
S21400C040FB079C46614672080A437B0846460EE09C
S21400C050AB4201D1A2420CD8A41A9D41012024195A
S21400C0606D410021013E24184D41002E06D0AB4202
S21400C070EED9013E24196D41002EF8D100980199A1
S21400C0805B4600196941002B25DB2B005A464446C7
S21400C090D3402A00E2401C005B461500002B2BDB39
S21400C0A026005F46BE40330026004746BE403200AC
S21400C0B0801A9941009001919CE7A342B9D880E785
S21400C0C04246202300219B1A002200910192012261
S21400C0D0DA40019283E7424620239B1A2A0046460E
S21400C0E09A402300F340444613432A00E2401C00D3
S21400C0F05B461500002BD3DA2023424626009B1A07
S21400C100DE402F00B4464646B74066463B00334303
S21400C110CAE7C046F0B5D6464F464646C0B50F26D7
S21400C1200E40022E00D9B1E0FE25AD001C00083CF2
S21400C130A4B2AC4200D9ACE0441C00D1ACE0446AE6
S21400C140A146082B49D9002408250134E4B26D0025
S21400C150ADB2AB42F9D835001035AD0045196D6863
S21400C160002A3CD12A60AB80AA710126E9793143C6
S21400C170E971AA60AB81AA73EB7B3343EB73802330
S21400C1805B004946CA541132CA54426D44490A40BB
S21400C1904265436E0B404366436D2407E022D2059A
S21400C1A0144023434365436E1C434466036903659A
S21400C1B043690366436D5B005B084365436E5B0043
S21400C1C05B0843660A23FF3313224946CA540020FD
S21400C1D01CBC90469946A246F0BD0024BBE749B277
S21400C1E08A460911884608218C46414667463940EA
S21400C1F08C46654400212960AB80AA71EB79012149
S21400C2008C4661460B43EB715346002B29DB7301CA
S21400C2104B441F0080235B00FD5C07218D43FD54CB
S21400C220FD5C52001F49525C1543FD540623FF3344
S21400C2304022FA5476005346D90F761836018019F4
S21400C240436D174A13404365436D2407E022D20529
S21400C25014401C434465436D5B005B084365002047
S21400C260B6E773014B441F0080235B00FD5C702122
S21400C2708D43FD54FD5C520094460A4A624452784F
S21400C2801543FD5404338022FA54D3E77C20404201
S21400C2909EE77C2040429BE77D20404298E7C046D0
S21400C2A0FFFFFF8F501F010008D1002806D1F5427E
S21400C2B004D801D3002A01D16D0D09D10020C14355
S21400C2C0090DC904F0BDF9D11242F7D1640DF5D0BD
S21400C2D00020C14349054908A6E000206146F0BD9C
S21400C2E0F0B50127FF070E005E403E40B446BE0A8A
S21400C2F04C18DD18F442D7D2F542E4D2640DECD0E7
S21400C3006D0DEAD06419C9023943460DC0023143A7
S21400C310DB023B43DB0A10B48E4685B297B26F430E
S21400C320140C6C433E0CA419260C2404BFB22743FD
S21400C3309CB26C43A419190C6943250CA4B2491984
S21400C3400D04090C6419000C95B245433E0C761991
S21400C3503743BFB2360C150C4543AD19A6B2240CB4
S21400C360AD192E0437432E0C36199DB24543AD1930
S21400C370ACB22E0C89191D0C45436D182E04290CE1
S21400C3803443704680B295B245433E0C7619374327
S21400C390BFB2360C150C4543AD19A6B2AD19240C28
S21400C3A02E0437432E0C36199DB24543AD19ACB258
S21400C3B02E0C89191D0C45436D182E043443290C88
S21400C3C075462D0C90B268433E0C80190604BFB229
S21400C3D03E43070CA0B23F18120C6A43D019020C59
S21400C3E080B2240CA4189AB26A431219140420438B
S21400C3F0120C89181B0C6B43C91810BC01273D058D
S21400C400294203D1B61940414941013CFF077D0D41
S21400C410013D641B0BDB6D00AC4209DA24050025E8
S21400C4204208BE416841614166463143F0BD54E76B
S21400C4304EE77047F0B5DE4657464E464546E0B5F1
S21400C44083B004000E000F250D40022D02D91029DE
S21400C45000D0A6E0631C00D1A6E0676AE378002B54
S21400C46013D1A37B012B08D07F20404203B03CBCF5
S21400C47090469946A246AB46F0BD0023A3730A2019
S21400C480205604F0A1FB834601E000239B46102EB5
S21400C49028D0002D56D17F23842149007B540821C3
S21400C4A0FF317B5481330021F954636CD979012024
S21400C4B08143D971D97B8143D973E3780020002B5F
S21400C4C0D4D15B46002B09D0A37A5AB2002A05DBEA
S21400C4D01F221A4001239340354A13600123A37399
S21400C4E00020C3E71023842149007B540821FF3134
S21400C4F07B5426004436019600211B0199460023F2
S21400C50098467F250823FF339C4601204B01FB18E5
S21400C5104E4642469A558422520092469A445246C5
S21400C520157062469D54019A08CA0192DA7916007F
S21400C5308643DE71DA7B16008643DE7301310329FB
S21400C540E4D1BAE776B2002E1BDB6B01FB18802025
S21400C5504000195C0727B943195405210820FF300D
S21400C56019540933FF3319701035AD0065196B681F
S21400C570361108210E409E19F37907398B43F37163
S21400C5809BE76B01FB1880204000195C7027B943BD
S21400C59019540A210820FF3019540933FF33197043
S21400C5A0E2E77C20404261E77D2040425EE7C046ED
S21400C5B000E100E0F0B593B0534C5449200005F07C
S21400C5C0C1FC200005F06EFC0019514D2E000C3603
S21400C5D00C22310005F0FBFB01A804F0EBFC29005F
S21400C5E0183101AA06A805F05BFB06A9200005F095
S21400C5F062FB484F386804F0C5F902000B002900BA
S21400C600243106A805F04CFB06A9200005F053FBD4
S21400C610786804F0B7F902000B002900343106A848
S21400C62005F03EFB06A9200005F045FB7B7A3A7A2A
S21400C6302900443106A805F033FB06A9200005F0C2
S21400C6403AFB200005F02EFC001933490322703116
S21400C65005F0BDFB7D21200005F08AFB05003100BA
S21400C660200004F061FE2D1A4BD42B497431264865
S21400C67004F05AFE0400AA1C06AD2849280005F05E
S21400C6800FFB2A78002A07D00023073406A9E254B5
S21400C69001335A5C002AFAD11B4C200005F0DCFA64
S21400C6A005F0E0FB1E4A1D4B043303CB03C21B8878
S21400C6B0138006AB00229A702478002C14D0194FF1
S21400C6C01D000F26200905F0DDF9287020003040F7
S21400C6D005F0D8F968702900114805F0ECFA013722
S21400C6E07B1E1C78002CEDD10D4C200005F0DAFBEB
S21400C6F000190D490322343105F069FB200002F0D1
S21400C70077FF13B0F0BDC046401F0020A83F0020B2
S21400C710789000001C2C0020F88E0000788F000017
S21400C72070170020411F0020F88B000010B5564BF4
S21400C7309B7D002B53D0544A516807230B40127E32
S21400C74052075BD5504A906A50494A69C9688A427E
S21400C75054D2002B44D14D4B5968885401325A614B
S21400C760494B1B7EDB0718D5474B01221A75474AF3
S21400C77093699268934258D2444A1168C85C424909
S21400C780886201339361414B9A699B689A4262D0F2
S21400C7903E4B5A69DB689A4269D03B4B1B7E9B072F
S21400C7A016D53B4B1B78002B19D0384B5A69DB68E3
S21400C7B09A4211D1354B00221A7733490720087563
S21400C7C033490A701B6A002B09D0304A506A9847D2
S21400C7D02F4B1B78002B02D02B4B02229A7510BDD4
S21400C7E02A4B51005C68085301325A61264B1B7E67
S21400C7F0DB07D2D5244B01221A7508E0224A127EA6
S21400C800D207CAD5204A01211175002BAFD01F4A86
S21400C81093699268934213D21C4A59001068085ACA
S21400C8201949886201339361ADE7184B1B69002BE9
S21400C83023D0154AFF219162013B144A1361A2E7F7
S21400C840124B1B69002B18D00F4A12499162013B0C
S21400C8500E4A136197E70D4B1B69002B98D10C4BC2
S21400C86001221A70084B1B7E9B079ED4B4E7064B2A
S21400C87001229A7503321A758FE7044B9A699B68F2
S21400C8809A4200D084E7EAE7000C004258430020B2
S21400C890A73F0020FFFF00003EBF0000CEBD000007
S21400C8A0CEBD0000CEBD0000CEBD0000CEBD000057
S21400C8B0CEBD0000CEBD0000CEBD0000CEBD000047
S21400C8C0CEBD0000CEBD0000CEBD0000CEBD000037
S21400C8D0CEBD0000CEBD0000CEBD0000CEBD000027
S21400C8E0CEBD0000CEBD0000CEBD0000CEBD000017
S21400C8F0CEBD0000CEBD00003EBF0000CEBD000095
S21400C900CEBD0000CEBD0000CEBD0000A0BE000023
S21400C91010BF0000CEBD0000D4BE0000F4BE000074
S21400C920CEBD000008BF0000CEBD0000CEBD00009A
S21400C930CEBD0000CEBD0000CEBD0000CEBD0000C6
S21400C940CEBD0000CEBD0000CEBD0000CEBD0000B6
S21400C950CEBD0000CEBD0000CEBD0000CEBD0000A6
S21400C960CEBD0000CEBD0000CEBD0000CEBD000096
S21400C970CEBD0000CEBD0000CEBD0000CEBD000086
S21400C980CEBD0000CEBD0000CEBD0000CEBD000076
S21400C990EABD0000F4BD000002BE00000CBE0000B0
S21400C9A0CEBD0000CEBD0000CEBD0000CEBD000056
S21400C9B0CEBD0000CEBD0000CEBD000016BE0000FD
S21400C9C020BE000032BE000072BE0000CEBD0000D9
S21400C9D0CEBD00004EBE00007CBE000086BE00003D
S21400C9E090BE000096BE0000F0B583B005000C00B7
S21400C9F04978032900D179E01DD9052930D00929C5
S21400CA002CD1A278E3781B02134304D1C178072205
S21400CA100A40052A2ED0AD22AA5CDBB29A4200D18B
S21400CA207FE0AE23EF5C002F41D00233EA580023AC
S21400CA30B4218C4633E001290AD1A278E3781B02A0
S21400CA401343012B05D1BF330022C254002100E05E
S21400CA500121280003F0CBFD03B0F0BD0121F8E76B
S21400CA60027880235B4213430370A278AC23C2543F
S21400CA700021EEE7B8330632C25403F01FFDAD23A3
S21400CA800022EA54EB780732934304221343EB70F8
S21400CA900021DEE70133DBB20432BB4207D0116867
S21400CAA04E79A0788642F5D160462950F2E7A27802
S21400CAB0AD23EA54280002F0E3FCEB780722934308
S21400CAC005221343EB70A27801AB1A70D523EB5CFA
S21400CAD00021012BBDD1D733EB58002B23D0DC220D
S21400CAE0AA5801A90A2098470021B2E7A278E3785D
S21400CAF01B021343012B0FD00121022BA9D1027870
S21400CB000C331340022BA4D163798370437801223F
S21400CB101343437000219CE7BF330122C254002117
S21400CB2097E7002195E7002193E77047F0B583B0BB
S21400CB30454B1A79052A65D89300444AD3589F4630
S21400CB400321002004F05EF83F4B1860431C59D0C8
S21400CB5000223F4904F0A4FC3B4B01221A7151E02D
S21400CB60394B1B7B002B4DD0374B02221A7149E004
S21400CB7004F0D2FC002845D1334B03221A711D3233
S21400CB809B5C002B3ED0304C20230022E254213BFD
S21400CB90A3618133210018319B00226B00F000FF57
S21400CBA0A36901332ED1284B06221A712AE004F01D
S21400CBB0B3FC002826D1244A2023D35C002B21D0A6
S21400CBC0946B002C14D0234B1968136B1C19224F3E
S21400CBD00026224D04E0511CA85401339C4205D087
S21400CBE018783200B942F6DC0A00F4E7194B1960EF
S21400CBF0154B00229A6302321A7103E004F08CFC93
S21400CC00002801D003B0F0BD0F4901235B42CB6181
S21400CC1022330022CA541C3B0B71CB6B4A6B1C316F
S21400CC2001300090002000F01BF8EBE704F074FCE5
S21400CC300028E7D1044A2123D35C002BE2D013005E
S21400CC4002221A71DEE7C0467C420020101C01005A
S21400CC5041FE000034440020FF010000CC300020DC
S21400CC60F0B5C64600B506000F0015001C0006AB62
S21400CC701B78002800D073E0012252420A60404A26
S21400CC80127C002A00D16EE0002C00D16EE09A07DC
S21400CC900AD53B4BD989A14200D96AE0200000F0B2
S21400CCA0E9FC641A022101E001211940344B5A6B59
S21400CCB09B6A9A4260D2334B5B78012B05D0602486
S21400CCC06442200004BC9046F0BD2E4B00225A70F1
S21400CCD02D4B1B7A5BB2012B10DD2B4A2C23D3562F
S21400CCE0012B0ADD5023D3560226012B06DD254BE9
S21400CCF001225A7080246442E3E70126224AF000AB
S21400CD0083199B009846904483199B009D50434688
S21400CD105C600023444663611C4BE3604646217416
S21400CD2005F01AF9164C636B0133636305F018F9C6
S21400CD303E60217B2068424604F0A0FC041E03D11E
S21400CD40104B01225A70BCE705F006F90C4A536BEB
S21400CD50013B536305F004F901235B423B60EFE7B8
S21400CD6078246442ADE776246442AAE77E246442CF
S21400CD70A7E77E246442A4E780246442A1E7C04675
S21400CD80F84000206C440020703E0020C9F70000E8
S21400CD90F0B58FB00D934B680C9008938B680D0020
S21400CDA00993CB6816000393089B0F68002B60DB83
S21400CDB002239F4310233B400A933368059373680E
S21400CDC00693099B04930A9B002B06D0059B069AA4
S21400CDD0134302D0099B023B049308233B400B936A
S21400CDE05A1E9341049AD31A04932B69039A5C1E25
S21400CDF000231355089B0793012C10DD059B069A0C
S21400CE00134339D1079B002B36DC089A049B9B1AE8
S21400CE10079A9B18002B02DD02231F422CD10A9B87
S21400CE20002B0BD00CCE134308D0039B0D9A1B1976
S21400CE30013B1A703023039A023C13550B9B002BC0
S21400CE4003D02023039A013C13552B6900975A1EE2
S21400CE50039B121B19190C98099B02F041FC0C9BB2
S21400CE605B68DB0503D56B68984200DA18000FB0E4
S21400CE70F0BD012308939DE70F22059B013C13405C
S21400CE8018005730092B01DC303318000D9B413B4E
S21400CE90192B06D820230343613B192B01D805F034
S21400CEA01FF8039B1855079B013B0793069B1A0721
S21400CEB0059B1B091A43069B05921B0906939BE7D5
S21400CEC030B583B0002800D081E0444B1B78002B9F
S21400CED000D07FE0414B01229A731A7020301A541A
S21400CEE04C685C62C87B5872002058709863187152
S21400CEF08D7A9D72CD7ADD720D7B1D734D7B5D73D1
S21400CF00D87022705A6A013093780342FCD10A2303
S21400CF10D370334B1B685B0B0193019A1F2313409E
S21400CF201F2B33D02D4A526A108D9B010343138565
S21400CF30019B9B05DB0E1F2B2AD0108D0343138508
S21400CF40019BDB045B0F072B24D0108D1B030343D0
S21400CF5013850B7A002B03D0137804200343137039
S21400CF601E4B5B7A012B17D01C4A516A0B780220A5
S21400CF7003430B70516A02228B781342FCD1174A86
S21400CF8020230221D154002003B030BD1A3BC9E74C
S21400CF90023BD2E7043BD8E7104B5A6A18005030E1
S21400CFA050623C22002098540A6A1A645A6A13890E
S21400CFB00C308343897B032906D09BB21381002162
S21400CFC0064803F0B5FECFE701310B43F5E7012035
S21400CFD04042D9E701204042D6E7C046CC36002082
S21400CFE024608000F8B5CE46474680B506008846E1
S21400CFF00F240C40022C00D97CE0431C00D17CE0BE
S21400D000476A230010339B00C3185D68C378002B63
S21400D01010D1837B012B05D07F2040420CBC90466C
S21400D0209946F8BD002383730A20305603F0CCFDE2
S21400D030814601E000239946002C2DD182235B0017
S21400D040F722FA540823FF33783AFA54EB7902278A
S21400D050BB43EB71043C2100280004F07BF9EB7B1A
S21400D060BB43EB7328000830210004F073F9F37813
S21400D0700020002BD2D14B46002B09D0B37A5AB2EF
S21400D080002A05DB1F221A40012393401C4A136026
S21400D0900123B3730020C1E743465BB298461B11D9
S21400D0A0082018402818C37902229343C37104212C
S21400D0B0494204F04FF94346002B0DDB64013C194E
S21400D0C082235B001022E2540822FF322021A15462
S21400D0D0073AFF3AE254CAE764013F1982235B002D
S21400D0E02022FA540822FF324021B954063AFF3A69
S21400D0F0FA54BCE77C20404290E77D2040428DE712
S21400D10000E100E0F0B583B003F0BAFF8021002212
S21400D110C9033F4804F0F8FE3E4C64343E4F3F4B94
S21400D120283301933D4D02E03D4804F095FDFF266F
S21400D130200004F091FD04F053FA04F0D1FE3040D4
S21400D1401B383E28F4D880003B589F46FEF738FE32
S21400D150EDE730486C3004F07FFD04F041FA06003D
S21400D16004F080FE313EF0B204F01EF9C0B204F0C6
S21400D17097FCDCE727487C3004F06EFD04F030FABC
S21400D1803138C6B22548083004F066FD04F028FAA7
S21400D190322807D0332809D03128C8D1300004F00F
S21400D1A03FF8C4E7300003F0E1FFC0E7300003F0CB
S21400D1B0DDFFBCE71948203004F04EFD04F071FA9C
S21400D1C0012181400022124804F09EFEAFE72800AD
S21400D1D0203004F041FD04F064FA01220121814070
S21400D1E052420B4804F090FEA1E704F03BFE0848CC
S21400D1F004F0C4FE04F085FB99E7019804F02CFDCA
S21400D2008020000204F0BCFC91E701F0C5FA8EE72E
S21400D210804400417891000098DC0000F8910000FE
S21400D220483F002070B582B0040016006B4600220E
S21400D230DA710E2901D002B070BDEC2545433F4B94
S21400D240ED18B279F3791B0213432A00E0321380FB
S21400D2502B00E4331B681B6C7231E86998473378FF
S21400D260DB06DB0EDAB2012A2CD05BB2002B09D02B
S21400D270022A38D0032ADED132000E21280003F01D
S21400D2808CFFD8E73278602313400CD152B2002AC4
S21400D29004DB31002800FFF7A7FBCCE731002800AD
S21400D2A000F07CFCC7E7402B06D0202BC3D1012121
S21400D2B0280003F09CF9BEE732000E21280003F098
S21400D2C06CFFB8E7327860231340402B05D03179E5
S21400D2D03200280003F052F8ADE73179320028001A
S21400D2E003F04CF8A7E7317900290AD13378602299
S21400D2F01A421BD16B46D9793200280002F000F89A
S21400D30099E76B46DA1D280003F07FFBEC236343A6
S21400D3100A4CE418E27807231340052B01D10028B5
S21400D320E4D10121280003F062F984E76B46D9793D
S21400D3303200280003F022F87DE7C04600380020BF
S21400D340F8B504000D0016000823C356002B7DDD3B
S21400D350092979D88B003E4AD3589F464378042241
S21400D36093434370E427C3591B6C0021C069984758
S21400D370E3591B6C8021E0699847200003F09EF873
S21400D380E3595B6A1021E0699847E3591F6A402316
S21400D39000228021E069B8479023E356022B07DC81
S21400D3A022008832E423E3589B6B0021E06998470B
S21400D3B0E3780722934303221343E370E423E358FE
S21400D3C01B69E0699847072303405B0020780E221C
S21400D3D0904318432070E2680E231840022816D0A7
S21400D3E0B0239168E1501279023BE254AD2300224B
S21400D3F0E254D523E35C012B28D1D733E358002B26
S21400D40024D0DC22A2583100280098471EE0A23320
S21400D4105169E150127C023BE254E7E7437804226C
S21400D42093434370E5E74378042213434370E0E7F1
S21400D430C3780722934301221343C370D9E7C37806
S21400D44007229343C370D4E7002DD2D1F8BDC0465F
S21400D45078140100F0B5C64600B58AB00200120A7C
S21400D46003001B0C0F1C090AC6B20196D2B2039227
S21400D470DBB20293060EFFB2CDB208AC0A2128003A
S21400D48000F072F8010188460A21280000F0F2F840
S21400D490414421700A21380000F066F805010A218F
S21400D4A0380000F0E7F86D1865700A21300000F0CB
S21400D4B05BF805010A21300000F0DCF86D188021C9
S21400D4C049420D43A5700023E3708A31029F38005D
S21400D4D000F04AF805010A21380000F0CBF86D1874
S21400D4E025710A21039F380000F03EF805010A2145
S21400D4F0380000F0BFF86D1865710A21019E3000F3
S21400D50000F032F805010A21300000F0B3F86D187B
S21400D510A57107222100002003F08EF8002820D1F4
S21400D5200F2104AB9C46614400230B700F3003F0C0
S21400D5300DFB002805D0022040420AB004BC9046ED
S21400D540F0BD0F2304AA9446634419784022914301
S21400D55019700F3003F07AFE0028EED00320404208
S21400D560EBE703204042E8E7002243088B4274D3EF
S21400D57003098B425FD3030A8B4244D3030B8B42CF
S21400D58028D3030C8B420DD3FF22090212BA030CD8
S21400D5908B4202D31212090265D0030B8B4219D3B9
S21400D5A000E0090AC30B8B4201D3CB03C01A5241D9
S21400D5B0830B8B4201D38B03C01A5241430B8B4221
S21400D5C001D34B03C01A5241030B8B4201D30B030A
S21400D5D0C01A5241C30A8B4201D3CB02C01A524131
S21400D5E0830A8B4201D38B02C01A5241430A8B42F4
S21400D5F001D34B02C01A5241030A8B4201D30B02DD
S21400D600C01A5241CDD2C3098B4201D3CB01C01AF6
S21400D610524183098B4201D38B01C01A5241430900
S21400D6208B4201D34B01C01A524103098B4201D3EE
S21400D6300B01C01A5241C3088B4201D3CB00C01A5B
S21400D640524183088B4201D38B00C01A52414308D3
S21400D6508B4201D34B00C01A5241411A00D20146F8
S21400D660524110467047FFE701B5002004F090FCD9
S21400D67002BDC0460029F7D076E77047F0B5DE4613
S21400D68057464E464546E0B585B0002900D175E0C0
S21400D6903B4B1F6900249C4699461E009846029004
S21400D6A008E038485546855442469360631C01346A
S21400D6B0994253D9344B5A6807231340012B19D08B
S21400D6C0B268F568531CBB42804103409D4246D079
S21400D6D00298005D82462C4D686807250540012D9E
S21400D6E0DFD15200274855468554824652440025CD
S21400D6F05570D9E763469B6801936346DA68019BD9
S21400D7000133BB42804103409A4228D06200029D0A
S21400D710681C924602005046125C1202285C0243C5
S21400D72015000392184840688346072082465846EC
S21400D73052461040012807D0124A2800019D505535
S21400D7404A469360631CB2E7019A55000D4A039857
S21400D750505592465544020A6A70F1E71C0004F0E0
S21400D76021F9002802D0084B01229A75200005B046
S21400D7703CBC90469946A246AB46F0BD0C00EEE790
S21400D780BC410020F03B002000080042F0B5DE4619
S21400D79057464E464546E0B585B0002900D175E0AF
S21400D7A03B4B1F6900249C4699461E0098460290F3
S21400D7B008E038485546855442469360631C013459
S21400D7C0994253D9344B5A6807231340012B19D07A
S21400D7D0B268F568531CBB42804103409D4246D068
S21400D7E00298005D82462C4D686807250540012D8D
S21400D7F0DFD15200274855468554824652440025BC
S21400D8005570D9E763469B6801936346DA68019BC7
S21400D8100133BB42804103409A4228D06200029DF9
S21400D820681C924602005046125C1202285C0243B4
S21400D83015000392184840688346072082465846DB
S21400D84052461040012807D0124A2800019D505524
S21400D8504A469360631CB2E7019A55000D4A039846
S21400D860505592465544020A6A70F1E71C0004F0CF
S21400D870B5F8002802D0084B01229A75200005B0A2
S21400D8803CBC90469946A246AB46F0BD0C00EEE77F
S21400D890FC410020F03C0020001C0042F8B5CE46BB
S21400D8A0474680B506000D000F240C40022C00D918
S21400D8B06DE0431C00D16DE0476A230010339B00E7
S21400D8C0C3185B689846C378002B10D1837B012B66
S21400D8D005D07F2040420CBC90469946F8BD0023F8
